:1000000078FFE4B8200118F6D8F99000007F007E50
:1000100007E4F0A3DFFCDEFA758121022A29122D04
:1000200076900246E06F6002EFF02202239EE4FD2C
:10003000900249E0601190024DE0FE54F0FDEE5454
:100040000FF0E4900249F0CFEDCF2202258275B285
:100050008E75B6F9E4F5B743B20143AA0102309CAC
:10006000000000022C899002D2EBF0A3EAF0A3E991
:10007000F09001D9E024FE601314700302110414FF
:1000800070030212FA240370E81230199001CFE0D5
:10009000605D900217E004F0E49002D5F0121DA616
:1000A000C39F5048E0FB121C851221C300000000D2
:1000B000EBB4010DE4900257F0A3F0900262121F1E
:1000C0007E9002D5E0FFB4020DE4900259F0A3F057
:1000D000900264121F7EEFB4030DE490025BF0A364
:1000E000F0900266121F7E121E9C80B1122745906E
:1000F0000217E0C394015003021071122DBC90014D
:10010000D97403F09001CFE07003021071E4900203
:10011000D5F0121DA6FBC39F40030211D7121CD8B5
:10012000121DC1F583E475F001122099EF121DBD77
:10013000121D5364014E700B121B9FFF121D98F588
:10014000838029121D90121D9CF583C083C08212EA
:100150001BAEFF121EA3121F85121BDFEF2BFFEE3B
:100160003AFEED39FDEC38FCD082D0831221B71273
:100170001BED121E1FFB121BA0FF121C1B121F5493
:10018000121C85121E2BFFEB121CAC121E1FFB70E3
:100190001A121CD8121E82121CCCEF121C85121EC1
:1001A0002B241EFFE43E9002D88014121C84121EE1
:1001B0002BFF9002D8121DB0EB121E7EF583EEF0DD
:1001C000A3EFF09002D5E0121C851221C3000000BD
:1001D00000121E9C021112E49001CFF0C39000A601
:1001E000E0940A9000A5E0940050030212F4E49019
:1001F00002D5F0121DA6FBC39F40030212C875F082
:100200002FEBA424A1F582E5F03400F5831221C37D
:100210000000000075F02FEBA424B5F582E5F03462
:1002200000121CCC121D90121DC0121D53FBCAEEF1
:10023000CAE4F9F8121D90121D9C121BACFF12218A
:1002400001121D0C24ADF582E5F03400121F40753B
:10025000F012ED121C3FE4F0A3F0ED121D99F583AE
:100260001221C300000000121CD5121DC1121CCCAB
:1002700075F02FEF121E32E4F075F022EF121CF829
:10028000E4F075F022EFA42422F582E5F03400F5C5
:1002900083E4121D6A7405F075F022EFA42424F59E
:1002A00082E5F03400F583740AF075F02FEFA412A4
:1002B0001D16740AF0EF121BA0FF121CDFF583124B
:1002C00021B7121E9C0211F3900002E075F00AA4FF
:1002D0009001D3F043A9089001D97404F0E4FF120F
:1002E0002FA7900218E07002A3E060057F0A122F8A
:1002F000A7021B6312274A0210711230DE9001CF51
:10030000E070030210719001D3E0D394004006E046
:1003100014F00218BBE49002D5F0121DA6F9C39F99
:1003200040030218BBE9121C1C121E29FBCAEECAAC
:1003300075F022E9121C88121E2BC39BFFEE9A90C7
:1003400002D6F0A3EFF0E970030215259002D6E083
:10035000FEA3E0FF1231169002D5E0FB75F008A471
:100360002495F582E5F03401121DE2C39FEC9E5006
:1003700022121CF07401121D6A7405F075F022EF50
:10038000121BA3FF121C1BF5831221B775F02FEB74
:10039000021417121CF0E0700302141D75F022EF16
:1003A000121CE6121BDF75F022EF121BA3FFC31213
:1003B00021939002D5E0FF75F0225024121CE61222
:1003C0001BDF75F022EF121BA3121D7B121CDFF541
:1003D00083E0F8A3E0F9A3E0FAA3E0121F5F80270F
:1003E000121F85121BDF75F022EF121CE6121BACE8
:1003F000121D7B121F0B121CDF121BACC39BFFEEE6
:100400009AFEED99FDEC98FC9002D5E0121C1CF5CB
:10041000831221B7121D90121CC3121F8F9002D598
:10042000E0FB121C1C121BFE121DB01231169002B2
:10043000D5E0FB75F002A424C7F582E5F034011283
:100440001DE2D39FEC9E5003021506121C07E0FE2E
:10045000A3E0FFE4FCFD121BD2D3122193121EA3D2
:10046000405D121C1FF583C083C082121BAEFFECDF
:10047000C0E0EDC0E0EEC0E0EFC0E09002D5E012D9
:100480001C08E0FEA3E0FBCAEECAE49002D5E0122D
:100490001C1C121BACC39BFFEE9AFEED9400FDECFE
:1004A0009400121D86121F0BD0E0FFD0E0FED0E0BA
:1004B000FDD0E0FC121EABED99FDEC980214F41295
:1004C0001C1FF583C083C082121BE1E8C0E0E9C0B5
:1004D000E0EAC0E0EBC0E0121BB9121EABE499FDEC
:1004E000E4121D85D0E0FBD0E0FAD0E0F9D0E0F8CE
:1004F000EB121F5FFCD082D0831221B79002D5E0AF
:10050000121CC0121F8F121CF0E06019121D6BE04C
:10051000D39400121EA34008121D6FE014F0800552
:10052000121CF8E4F0121D04121EC2121EDD75F03A
:100530002FED121EC1121D53D3940AEE64809480D5
:100540004018121CBB75F022EF121C1FF583C083EC
:10055000C082121BAE121F488035121D90121EC1A0
:10056000121D53C394F6EE6480947F502A121CBB74
:1005700075F022EF121C1FF583C083C082121BAEE0
:10058000C39401FFEE9400FEED9400FDEC9400FC9A
:10059000D082D0831221B7121BED121DB09002D66B
:1005A000F0A3EFF012311675F008121D0F2495F527
:1005B00082E5F03401F583E0FAA3E0D39FEA9E40A0
:1005C0006475F02FED121E57E0600B121BEDEEF07C
:1005D000A3EFF0021654121D04121EE5121EDD12C6
:1005E0001D46D3940AEE648094804013121CD512E9
:1005F0001EE5121CCCEF121C08E475F001802112DC
:100600001D46C394F6EE6480947F5017121CD512D9
:100610001EE5121CCC75F02FEF121C0B74FFF5F0C9
:10062000122099802F9002D5E0FF6030C3A3E064D0
:10063000809480501F122FCD9002D5E0FF122EB76C
:10064000EF6019121BEDEEF0EF121CD3121D1674A1
:100650000AF080089002D5E0FF1230EE121CD5128D
:100660001E58E06019121D23E0D39400121D904023
:1006700008121D27E014F08005121E57E4F09002C6
:10068000D5E0FF121CACE0FCA3E0FD75F02FEF12EB
:100690001C0B121E4AFFEE9C9002D6121E20FF7009
:1006A0000302172E75F02FA4121EEE121D53D394C1
:1006B0000FEE64809480402A121D90121E32740145
:1006C000F0C39002D6E064809480501475F02FEF50
:1006D000121C0BE0FCA3E0FD121CABECF0A3EDF050
:1006E0008036121CD5121EEEF583E0FCC3EC64804C
:1006F000948050329002D7E094009002D6E064805B
:100700009480401475F02FEF121C0BE0FCA3E0FD69
:10071000121CABECF0A3EDF0121D90121DED121C9B
:10072000CC121F8F8008121D90121E32E4F0121D91
:1007300004121DEE121EDD121DE9121D53D394FA90
:10074000EE648094804009121C94E475F0018017D7
:10075000121DE9121D53C39406EE6480947F500A63
:10076000121C9474FFF5F01220999002D5E0FF124C
:1007700024949002E4E070030218B5121DCA9000A0
:100780006D121BE1C312219350069002E77425F00D
:10079000121DCA90004B121BE1C312219350069008
:1007A00002E77427F0121DCA900029121BE1C31240
:1007B000219350549002E77426F0121DCA90004B0A
:1007C000121BE1C312219350069002E77428F01225
:1007D0001DCA90006D121BE1C312219350069002B6
:1007E000E77429F0121DCA90006D121BE1C312219B
:1007F000935015121DCA90004B121BE1C312219396
:1008000050069002E77430F09002E7E06433600332
:100810000218A0121DD390006D121BE1C312219388
:1008200050069002E67425F0121DD290004B121B68
:10083000E1C312219350069002E67427F0121DD2F4
:10084000900029121BE1C312219350549002E674C8
:1008500026F0121DD290004B121BE1C312219350BF
:10086000069002E67428F0121DD290006D121BE172
:10087000C312219350069002E67429F0121DD29003
:10088000006D121BE1C31221935015121DD290006E
:100890004B121BE1C312219350069002E67430F014
:1008A000E49002E4F09002E7E0900255F09002E656
:1008B000E0900256F0121E9C02131AE49002D5F04A
:1008C000121DA6FEC39F4003021A35EE121E7E12B1
:1008D0001DE2FD9000B2E02DFD9000B1E03CFCEE89
:1008E000121E71F583ECF0ED121CD3121E75121D51
:1008F000E2FD121CAB121E4AFFEE9CFE121D0C12F2
:100900001EEE121F4075F02FED121C0BE0FEA3E04F
:10091000FFE4FCFD121EA3121BD6C3122193500349
:100920000219C39002D5E0FB121C1C121E292400E0
:10093000FFEE3404FE121C07121DB09002D5E0FD3C
:1009400075F022121DFF121F4075F022ED121C1FC0
:10095000F583A3A3E0FEA3121DA9FD121C08E0FA73
:10096000A3E0FB121EAB75F012ED121C3F121E1F0E
:10097000FF121C29E0FEA3E0D39DEE9C9002D5E07F
:10098000401E121C29121E4AFFEE9CC313FEEF13D9
:10099000FFED2FFFEC3EFE9002D5E075F0128018BF
:1009A000FB121C3CE0FEA3E0FF7C007D63122032C2
:1009B0000D12204475F012EB121C3FEEF0A3EFF085
:1009C0000219FC121BB9121EABE499FDE498FCE479
:1009D000FB7A04F9F8D31221939002D5E0FF75F069
:1009E000124010121C3F121DF7F5837404F0A3E4AB
:1009F000F08009121C3F121DF7121CCC9002D5E0AA
:100A0000FB121BA0FF75F022EB121CE6121F541202
:100A10001C851221C30000000075F022EBA4240FF6
:100A2000F582E5F03400F5831221C30000000012C6
:100A30001E9C0218C0900169E0541F900257F0906C
:100A40000169A3E0900258F090017BE0541F9002EE
:100A500059F090017BA3E090025AF090018DE05490
:100A60001F90025BF090018DA3E090025CF090007B
:100A700041E0541F900262F0900041A3E0900263B5
:100A8000F0900063E0541F900264F0900063A3E0D4
:100A9000900265F0900085E0541F900266F090008F
:100AA00085A3E0900267F0122745900218E07002DB
:100AB000A3E0600302107112296612101E122BCBE4
:100AC0009001D9EFF064046003021B63900001E021
:100AD000FF121E3EEF121FFE900001E0FDD39410A6
:100AE000402C12274A121E3E121F96647E701C90E4
:100AF000024DE04408F0900230E0600CE4F0C28A5D
:100B0000000000000000D28A7F01227F0022EDC396
:100B100094105008121E3E7401121FDC90024DE02A
:100B200054F0F0900001E0FDB4010790024DE04464
:100B300001F0EDB4020790024DE04402F090000194
:100B4000E0B4030790024DE04403F0900230E070FF
:100B50000C04F0C28A000000000000D28A12274A6A
:100B60007F012212274A7F002275F02FEBA424B1C7
:100B7000F582E5F03400F583E0FFA3E09002DACFE0
:100B8000F0A3EFF075F02FEBA424AFF582E5F0347D
:100B900000F583E0FFA3E09002DCCFF0A3EFF0EBE1
:100BA00075F022A42407F582E5F03400F583E0FC1B
:100BB000A3E0FDA3E0FEA3E0229002D5E0FB75F0E8
:100BC0002FA424AFF582E5F03400F583E0FEA3E026
:100BD000FFE475F022EBA4240BF582E5F03400F578
:100BE00083E0F8A3E0F9A3E0FAA3E0FB229002D5AA
:100BF000E0FB75F022A42407F582E5F03400F583CC
:100C0000A3A3E0FEA3E0FFEB75F02FA424AFF582D1
:100C1000E5F03400F58322FFE4EFF0EB75F022A459
:100C2000240BF582E5F034002225E0245EF582E411
:100C30003423F583E493FC740193FDEF75F012A463
:100C40002457F582E5F03401F58322F583E493FC23
:100C5000740193FD75F008EFA42495F582E5F03456
:100C600001F583ECF0A3EDF0EF25E0247EF582E4BE
:100C70003423F583E493FC740193FD75F002EFA433
:100C800022E4EFF0EB75F022A42407F582E5F034BE
:100C900000F583229002D5E0FF75F02FA4248FF594
:100CA00082E5F03400F583E4F0A3F0EF75F02FA4B3
:100CB00024B1F582E5F03400F583229002D5E0FFFF
:100CC00075F02FA4248BF582E5F03400F583E4F071
:100CD000A3F022A3F09002D5E0FF75F02FA422909C
:100CE00002D5E075F022A42403F582E5F034002259
:100CF0009002D5E0FF75F022A42421F582E5F034BE
:100D000000F583229002D6E0FEA3E0FF75F02F905D
:100D100002D5E0FDA42224B8F582E5F03400F58385
:100D20007401F075F02FEFA424B9F582E5F03400DA
:100D3000F5832224B7F582E5F03401F583ECF0A3C6
:100D4000EDF0EF25E02275F02FEDA4248DF582E57E
:100D5000F03400F583E0FEA3E022FDECF0EDA3F01B
:100D60009002DCE0FCA3E0FDEC22F075F022EFA4A1
:100D70002423F582E5F03400F58322C39BFFEE9A2D
:100D8000FEED99FDEC98FCE47B02FAF9F8022101F2
:100D90009002D5E075F02F22EB75F02FA4249DF57D
:100DA00082E5F0340022900002E0FF9002D5E022BC
:100DB000E0FCA3E0FDC3EF9DFFEE9CFE2275F02F4B
:100DC000A424A5F582E5F0340022E47F587E1BFDC3
:100DD000FC22E47FE07E2EFDFC22A3F0A3F0A3F032
:100DE000A322F583E0FCA3E02275F02FEDA4248F6D
:100DF000F582E5F0340022E4F0A3F075F022EFA4D0
:100E0000241FF582E5F034002274E02BF582E434EF
:100E100001F58322741A2BF582E43402F58322EE65
:100E2000F0A3EFF09002D5E022F583A3A3E0FEA3A8
:100E3000E022A424B7F582E5F03400F58322900285
:100E4000D2E0FBA3E0FAA3E0F922E0FEA3E0C39D19
:100E500022FF78080221A4A424B8F582E5F034002A
:100E6000F58322900232E02439F582E43402F583DE
:100E70002275F02FA424A7F582E5F034002275F046
:100E80002FA424B3F582E5F034002224C7F582E5CF
:100E9000F03401F583ECF0A3EDF00F229002D5E0E1
:100EA00004F0229002D5E075F02222C3EF9BFFEE02
:100EB0009AFE22E493FE740193FFE4FCFDC3022139
:100EC00093A4248BF582E5F034002224AFF582E56B
:100ED000F034012224BFF582E5F0340122F583EEDF
:100EE0008FF0022099248DF582E5F034002224A9A8
:100EF000F582E5F0340022C39BFBEE9AFAED99F9F6
:100F0000EC98F822E0FEC8EFC80822C8ECC8C9ED8A
:100F1000C9CAEECACBEFCB2225E025E024EBF5824F
:100F2000E434012225E025E0241EF582E434022287
:100F3000E4900241F0A3F022F583A3A3A3E0FF22F3
:100F4000F583EEF0A3EFF0222401FFE43EFEE43D42
:100F5000FDE43C22F5831221B79002D5E0FB222F5D
:100F6000FFEA3EFEE93DFDE83C229001DFE0FF752F
:100F7000F002A422EFF09002DAE0FCA3E022740475
:100F8000F0E4A3F022A42407F582E5F034002290D7
:100F900002D6F0A3F022BB010689828A83E02250A8
:100FA00002E722BBFE02E32289828A83E49322BB0A
:100FB000010CE58229F582E5833AF583E0225006AB
:100FC000E92582F8E622BBFE06E92582F8E222E561
:100FD0008229F582E5833AF583E49322BB010989EE
:100FE000828A83F8E028F022500327F722BBFE050F
:100FF000F8E328F3228A838982F8E4932822BB014C
:101000000689828A83F0225002F722BBFE01F32276
:10101000F8BB010DE58229F582E5833AF583E8F016
:10102000225006E92582C8F622BBFE05E92582C8C2
:10103000F222EF8DF0A4A8F0CF8CF0A428CE8DF092
:10104000A42EFE22BC000BBE0029EF8DF084FFAD64
:10105000F022E4CCF875F008EF2FFFEE33FEEC330E
:10106000FCEE9DEC984005FCEE9DFE0FD5F0E9E40A
:10107000CEFD22EDF8F5F0EE8420D21CFEADF07529
:10108000F008EF2FFFED33FD4007985006D5F0F242
:1010900022C398FD0FD5F0EA22C5F0F8A3E028F0AE
:1010A000C5F0F8E582158270021583E038F022A3BE
:1010B000F8E0C5F025F0F0E582158270021583E0B6
:1010C000C838F0E82275F008758200EF2FFFEE3384
:1010D000FECD33CDCC33CCC58233C5829BED9AECAB
:1010E00099E58298400CF582EE9BFEED9AFDEC9915
:1010F000FC0FD5F0D6E4CEFBE4CDFAE4CCF9A8821F
:1011000022B800C1B90059BA002DEC8BF084CFCEC3
:10111000CDFCE5F0CBF97818EF2FFFEE33FEED3381
:10112000FDEC33FCEB33FB10D703994004EB99FB48
:101130000FD8E5E4F9FA227818EF2FFFEE33FEED31
:1011400033FDEC33FCC933C910D7059BE99A40073E
:10115000EC9BFCE99AF90FD8E0E4C9FAE4CCFB2255
:1011600075F010EF2FFFEE33FEED33FDCC33CCC81E
:1011700033C810D7079BEC9AE899400AED9BFDEC29
:101180009AFCE899F80FD5F0DAE4CDFBE4CCFAE468
:10119000C8F922EB9FF5F0EA9E42F0E99D42F0E8A3
:1011A0009C45F022E8600FECC313FCED13FDEE1339
:1011B000FEEF13FFD8F122ECF0A3EDF0A3EEF0A3C5
:1011C000EFF022A8828583F0D083D0821221DA1238
:1011D00021DA1221DA1221DAE473E493A3C583C57C
:1011E000F0C583C8C582C8F0A3C583C5F0C583C850
:1011F000C582C822EF4E6012EF60010EEDBB010BFD
:1012000089828A83F0A3DFFCDEFA2289F05007F797
:1012100009DFFCA9F022BBFEFCF309DFFCA9F022E8
:101220003F3F3F3F3F3F3F3F0032000A00321770D1
:1012300009C4001E006400320032000A000A0100E6
:101240000000000000000000000000010101000497
:1012500005060708090A0B0C0D0E0F0102030037E3
:1012600000370037003700370037003700370037C6
:10127000003700370037003700370037003700509D
:1012800000500050005000500050005000500050DE
:101290000050005000500050005000500050001E00
:1012A000001E001E001E001E001E001E001E001E4E
:1012B000001E001E001E001E001E001E001E002D2F
:1012C000002D002D002D002D002D002D002D002DB6
:1012D000002D002D002D002D002D002D002D00963D
:1012E000009600960096009600960096009600964E
:1012F000009600960096009600960096009600AF25
:1013000000AF00AF00AF00AF00AF00AF00AF00AF65
:1013100000AF00AF00AF00AF00AF00AF00AF007D87
:10132000007D007D007D007D007D007D007D007DD5
:10133000007D007D007D007D007D007D007D002D15
:10134000002D002D002D002D002D002D002D002D35
:10135000002D002D002D002D002D002D002D00FA58
:1013600000FA00FA00FA00FA00FA00FA00FA00FAAD
:1013700000FA00FA00FA00FA00FA00FA00FA001483
:1013800000140014001400140014001400140014BD
:101390000014001400140014001400140014C0E021
:1013A000C0F0C083C082C0D0E8C0E0E9C0E0EAC0BD
:1013B000E0EBC0E0ECC0E0EDC0E0EEC0E0EFC0E08C
:1013C000D2AF9001CFE060030224719002E0742E4E
:1013D000F0A3E4F0121E63E09001DEF09001D0E093
:1013E00004F0E05407F0E090222093902ECAF09091
:1013F00001DEE0FD75F002A4FFAEF09002E1E02F07
:10140000F09002E0E03EF0ED90224E93900231F039
:10141000121C85C083C082121BE1E8C0E09002E08C
:10142000E475F0021220AF85F082121D53FFE4FC38
:10143000FDD0E0F8EB2FFFEA3EFEED39FDEC38FC85
:10144000D082D0831221B79001D0E0702190023277
:10145000E004F0E0FF900002E0FEEF8EF084AFF0D9
:10146000900232EFF070079001CF04F08003122752
:101470004AD0E0FFD0E0FED0E0FDD0E0FCD0E0FBC1
:10148000D0E0FAD0E0F9D0E0F8D0D0D082D083D04C
:10149000F0D0E032CBEFCB121C07E0FEA3E0FF75EB
:1014A000F02FEBA424ADF582E5F03400121DE2C369
:1014B0009FFFEC9E9002DEF0A3EFF0EB6401703929
:1014C000121B69121E5190029D121C81A3A3A3E05E
:1014D00090029E121C17121BAC121E51E490029F28
:1014E000121C19121F389002A0121F749002A11230
:1014F0001D5A9002A3F0EDA3F0EB6402703DEB12D5
:101500001E71121B76121E519002A5121C81A3A3FC
:10151000A3E09002A6121C17121BAC121E51E490FD
:1015200002A7121C19121F389002A8121F749002F1
:10153000A9121D5A9002ABF0EDA3F0EB64037041C9
:10154000121B69121E51E49002AD121C82A3A3A3C8
:10155000E0FFE49002AE121C19121BAC121E51E403
:101560009002AF121C19121F389002B0EFF09002D7
:10157000DA121D639002B1121D5C9002B3F0EDA36C
:10158000F022C0E0C083C082C0D0E8C0E0E9C0E083
:10159000EAC0E0EBC0E0EFC0E0D2AFE5DB30E4153D
:1015A000E5DB30E102802890024CE5DFF09002CDCF
:1015B000E4F0022651E5DB30E508123122900249C1
:1015C000802BE5DB30E119E5DB20E00302265190BA
:1015D00002CF122E81122E9A121FAFF5DF02265172
:1015E0009002CDE0700DA3E5DFF09002CD7401F024
:1015F0000226519002CEE0902A6E93FFB4FF0E9027
:10160000024CE5DFF09002CEE004F0803EEF640F84
:101610009002CF702B122E819002CEE0FF122EAEE0
:10162000540F121FFE9002CF122E819002CEE0FFC7
:1016300004F0122EAEFFE5DF54F04F121FFE800BB8
:10164000122E81122E9AE5DF12201090024BE00438
:10165000F075DBFFD0E0FFD0E0FBD0E0FAD0E0F99E
:10166000D0E0F8D0D0D082D083D0E032758A505309
:101670008AEF9002E57411F09002E37422F0900278
:10168000E77433F09002E67444F075995F759AA0A0
:10169000E4FFFEC29620970AD296309705E49002A6
:1016A000E5F00FBF00010EEF640A4E70E6E4FEFFA6
:1016B000C29620950AD296309505E49002E5F00F87
:1016C000BF00010EEF640A4E70E675991F759AE02F
:1016D000E4FEFF2095069002E37425F02097069023
:1016E00002E37427F02096219002E37426F02097FD
:1016F000037428F02095069002E37429F0209709DE
:101700002095069002E37430F00FBF00010EEF64E5
:101710000A4E70BF75AD0175AEE075AF09E4F5AC6A
:101720007589FE75913F75991FF59675931FF59B09
:10173000F595F592F59A75800EF588F590D28A9018
:1017400002E404F022E49001CFF0121E63E0FFC334
:1017500094085048902EC6E054FCF0E04401F0900C
:101760002EC57401F0C083C082121F048002C333EF
:10177000D8FCD082D083F0902ECD7401F0C083C00D
:1017800082121F048002C333D8FCD082D083F09031
:101790002EC97429F0902EC074C1F02274F82FFF66
:1017A000902EC6E054FCF0E04402F0902EC5740187
:1017B000F0C083C082121F048002C333D8FCD082E1
:1017C000D083F0902ECE7401F0C083C082121F042B
:1017D0008002C333D8FCD082D083F0EFB4050690EA
:1017E0002EC97428F0EFB40606902EC97422F0EFCB
:1017F000B40706902EC9742AF0902EC074C2F0224D
:10180000E49002D3F0FF9002D2F0EF14601E146057
:101810003514604C14605B240470749002D474011D
:10182000F0A3742FF0A37458F0022889122E7E9032
:101830000001121FAFFED3941F4003122EA7121FE8
:10184000966E704B8043122E7E900002121FAFFEE8
:10185000D394064003122EA7121F966E7031802972
:10186000122E7E900003121FAFFE121F966E701F85
:101870008017122E7E900004121FAFFE648B60034F
:10188000122EA7121F966E70069002D2E004F00F7F
:10189000EF6405600302280A9002D2E0B40504A3B5
:1018A0007401F09002D3E0FD6007900261E0547F84
:1018B000F0CFEDCF2290025FE0FE6410704EFF90FB
:1018C0000002E0FDEFC39D400302295CEF25E02408
:1018D000FEF582E43422121C72121D3324DEF582DE
:1018E000E43422121C72121ECB121D3B241EF58200
:1018F000E43423121C72121ED4121D3B243EF582C6
:10190000E43423121C4B121E8B0228BFEE6420709D
:1019100054FF900002E0FEEFC39E5040EF25E0240C
:101920007EF582E43422121C72121D33245EF5828D
:10193000E43422121C72121ECB121D3B249EF5822F
:10194000E43422121C72121ED4121D3B24BEF582F6
:10195000E43422121C4B121E8B0229129001B1A3F7
:10196000E0900251F022E4FFFE9002DAF0A3F0A32F
:10197000F0F9FDFC900002E0FBECC39B5051EC122F
:101980001C3CE0FAA3E0FBD3940FEA9400400690DD
:1019900002DBE004F0D3EB942DEA940040069002C1
:1019A000DCE004F0D3EB9437EA9400400109D3EB78
:1019B0009441EA940040010DD3EB9FEA9E400D90C4
:1019C00002DAECF0121C3CE0FEA3E0FF0C80A590D4
:1019D00002DBE0900233F09002DCE0900234F0A3EE
:1019E000E9F0A3EDF09002DAE09001DFF022022EA0
:1019F00000E493A3F8E493A34003F68001F208DF28
:101A0000F48029E493A3F85407240CC8C333C454C6
:101A10000F4420C8834004F456800146F6DFE4807A
:101A20000B0102040810204080902E44E47E0193B4
:101A300060BCA3FF543F30E509541FFEE493A3604C
:101A4000010ECF54C025E060A840B8E493A3FAE4A7
:101A500093A3F8E493A3C8C582C8CAC583CAF0A3F8
:101A6000C8C582C8CAC583CADFE9DEE780BE0FFFEA
:101A7000FF00000000000000FFFFFFFFFFFFFFFF6F
:101A8000FF00000000000000000000000000000057
:101A90000000000000000000000000000000000046
:101AA0000000000000000000000000000000000036
:101AB0000000000000000000000000000000000026
:101AC0000000000000000000000000000000000016
:101AD0000000000000000000000000000000000006
:101AE0000000000000000000000000000000900165
:101AF000B9A3E09002BDF09001BBA3E09002BEF05C
:101B00009001BDA3E09002BFF09001B1A3E090026C
:101B1000C0F09001B3A3E09002C1F09001B5A3E042
:101B20009002C2F09001C1A3E09002C3F09001C303
:101B3000A3E09002C4F09001C5A3E09002C5F0902C
:101B400023607401939002C6F09023627401939015
:101B500002C7F09023647401939002C8F022902E83
:101B6000C0E4F0902ECB74F7F0902F58E0540F247F
:101B7000F0902EC8F0902ECC7448F0902EC97429A5
:101B8000F0A3743FF0902E407402F07484121DDABA
:101B9000F0121DDAF0A3F07402121DDA7482F0A3C1
:101BA0007402F0A37482F0902EC67415F0902EC1CA
:101BB0007490F0A37401F0A37420F0A37408F043B0
:101BC000E310122FF3900002EFF0221230CDEF60FD
:101BD0000122122EEFEF600122900246E0248F6076
:101BE0000C24F3702A122F7D1230B5803B12306224
:101BF0009001DAE07002A3E070057F03122FA79036
:101C000001DBE004F070219001DAE004F0801912A9
:101C100030B5900246E0FF12303F7F04122D2AEFCC
:101C200060061227457F02227F04227E007F807D8E
:101C3000007B017A02794D1221F490024D7408F074
:101C400090024F7401F090026074ABF0A37486F0C0
:101C50009002E5E0900253F09002E3E0900254F02D
:101C60009002E7E0900255F09002E6E0900256F014
:101C700012280090024AE0600890024E7402F08040
:101C800005E490024EF0022AEEC0E0C0F0C083C02E
:101C900082C0D0E8C0E0ECC0E0EDC0E0EEC0E0EF14
:101CA000C0E0D2AF9001D6E004F0C3940A4012E441
:101CB000F090023D121BAE121F48FC90023D122113
:101CC000B7D0E0FFD0E0FED0E0FDD0E0FCD0E0F8FF
:101CD000D0D0D082D083D0F0D0E0329002D2741035
:101CE000F0A3E4F0A3743FF0A374FFF0E4FDFCF96B
:101CF0009002D2E0FEA3E02DF582EE3CF583E49362
:101D0000FF69F90DBD00010CBC2FE5BDFFE290029B
:101D1000D4E0FEA3E0F5828E83E49369700690021E
:101D20004A04F022E490024AF0229002DAEFF0C373
:101D3000940B503FE0FF24E0121E0CE06035EF12E0
:101D40001F18121BDF90023D121BAE121EF79002ED
:101D5000DAE025E02428F582E43422F583121EB36C
:101D6000400E9002DAE024E0121E0CE4F07F012223
:101D70007F00227F0022E49002DAF0122F24EF6429
:101D80007F6001229001DDE0701B04F0121F6A24C5
:101D9000B7F582E5F03401121DE2121C3A121E4A18
:101DA000EE9C401522121F6A121ECB121DE2121C5D
:101DB0003A121E4AEE9C4001227F7E22E49001DA14
:101DC000F0A3F0900244F0A3F09001D7F0A3F090BC
:101DD0000237F0A3F0900001747EF0121F30FB90E8
:101DE0000002E0FFEBC39F5016121D98F5831221ED
:101DF000C300000000EB121DBD121CCC0B80E022C2
:101E0000752001122CDB53A87F12266C12310A12A6
:101E1000104E1230FD12308143A88012102EEF2494
:101E2000E0600C2410700EC283C282C2818006D290
:101E300083D282D2811228B57B017A0279E2121014
:101E400066EF80D741023000410232004101D600E6
:101E500041000000C1094101DC00C108410243000A
:101E60004102CD004102CE0042024700004102493A
:101E70000041024B0041024A0041024C1000900216
:101E8000D4E0FBA3E0FAA3E0F922E4F5DA75DA4046
:101E900043DA2075D74075DA58229002CEE0FF046D
:101EA000F08F82758300229002D37401F022E92F13
:101EB000F9E43AFA021F969002DAEFF0E0FF241AF2
:101EC000121E17E06026EF121F24121BDF90023D46
:101ED000121BAE121EF7902232121EB3400E900259
:101EE000DAE0241A121E17E4F07F01227F0022D3C9
:101EF000900219E09400900218E094004023D390DF
:101F000001D8E0940A9001D7E09400500E9001DBD4
:101F1000E0940A9001DAE0940040061227457F021F
:101F2000227F0022900001E0FFC394105021A3E023
:101F3000FEEFC39E5019900001E075F002A4121E3E
:101F4000D4121DE2121C3A121E4AEE9C4001227F5E
:101F50007F227E017FD37D007B017A0079031221ED
:101F6000F4122C2B90025F7410F01228B5900246E8
:101F7000747EF0900001F0E49001DDF02290000109
:101F8000747EF07F041230BE900241E07002A3E044
:101F900060147F02122FA77F02122D2AEF60071212
:101FA0001F309001DDF022CBEFCBEBD3940B501C14
:101FB000121E09E07016121E097401F090023D1203
:101FC0001BAEFFEB121F18F5831221B722CBEFCB0C
:101FD000EBD39404501C121E14E07016121E1474DD
:101FE00001F090023D121BAEFFEB121F24F583128D
:101FF00021B722902EC5E4F0902ECDF0A3F0FFFE85
:10200000EF90223E93600974392E121E69EFF00E94
:102010000FEFB410EBCFEECF229001D97402F05342
:10202000A87F12274A43A82043A880E4900218F012
:10203000A3F0900218F0A304F0E4900217F022CA73
:10204000EFCAEAC394105019900001E06A60127F51
:1020500004122FA7900001EAF0900241E4F0A304DB
:10206000F022900241E07002A3E060147F02122F80
:10207000A77F02122D2AEF6007121F309001DDF0BA
:10208000229002CF7401F0A37402F0A3744DF012F9
:102090002E8A43A90875B80875F8082290023D12E7
:1020A00021C3000000007E007F0B7D007B017A01D0
:1020B00079E00221F4E49001DAF0A3F07F03EFD39A
:1020C000940B500874E02F121E0CE4F0227F0112D2
:1020D0002D2AEF60061227457F02227F00227F0A09
:1020E000122D2AEF6007E4900218F0A3F022EFD33C
:1020F00094045008741A2F121E17E4F02275BA9235
:1021000075BEF9E4F5BF43AA0222122B5E9001D9F5
:102110007401F0022F52EE30E707C3E49FFFE49E04
:10212000FE22122E8A2200000000000000000000A3
:10213000000000000000000000000000000000009F
:10214000000000000000000000000000000000008F
:10215000000000000000000000000000000000007F
:10216000000000000000000000000000000000006F
:102FF000000000000000000000000000000000735E
:00000001FF
