:1000000000200020A91A03089DBB0208B1BB02080A
:10001000C5BB0208D9BB0208EDBB02080000000006
:1000200000000000000000000000000001BC020809
:1000300015BC020800000000C547000877A10008B1
:10004000291D03082D1D0308311D0308AFC1020837
:10005000391D03080BC3020861BE0208F1BF020884
:100060007DC002084D1D0308511D0308551D0308DE
:10007000591D03085D1D0308611D0308651D030864
:10008000691D03086D1D0308711D0308751D030814
:10009000791D03087D1D0308811D0308851D0308C4
:1000A000891D03088D1D0308911D0308951D030874
:1000B000991D03089D1D0308A11D0308A51D030824
:1000C000A91D0308AD1D0308B11D03082DBC0208BE
:1000D000B91D0308BD1D0308C11D0308C51D030884
:1000E0001BC102086FC20208D11D0308D51D0308F9
:1000F000D91D0308DD1D0308E11D0308E51D0308E4
:10010000E91D0308ED1D0308F11D0308F51D030893
:10011000F91D0308FD1D0308011E0308051E030841
:10012000091E03080D1E0308111E0308151E0308EF
:10013000191E03081D1E0308211E0308251E03089F
:10014000291E03082D1E0308311E0308351E03084F
:10015000391E03083D1E0308411E0308451E0308FF
:10016000491E03084D1E0308511E0308551E0308AF
:10017000591E03085D1E0308611E0308651E03085F
:10018000691E03086D1E030838B5DFF8CC4C00204B
:10019000E06120626062A062E062A081DFF8BC0CD6
:1001A000E063DFF8BC0C206460643220E0824FF42E
:1001B00096702083DFF8AC5C4FF42072002105F1CB
:1001C000400002F04BF84FF42072002105F530702A
:1001D00002F044F89022002105F5B86002F03EF8E4
:1001E00040220021284602F039F840220021DFF8A1
:1001F0003C0D02F033F840220021DFF8340D02F00C
:100200002DF840220021DFF82C0D02F027F84022C3
:10021000002105F5A86002F021F84022002105F533
:10022000B06002F01BF840220021DFF80C0D02F054
:1002300015F840220021DFF8040D02F00FF8052226
:100240000021204602F00AF805220021DFF8F00C18
:1002500002F004F805220021DFF8D40D01F0FEFFC2
:100260000020A0822063A0632061A0606063E0643E
:100270000220A07331BD80B50FF2100002F092F899
:10028000DFF8D40B0021017301BD00004C54205352
:10029000746F70007047DFF8C01B4FF47A725043E0
:1002A000C86301460FF2040002F07CB84C5420539E
:1002B0005044202564000000DFF89C2B4FF47A7135
:1002C00048431064014651640FF2040002F06AB81A
:1002D0004C5420575044202564000000DFF8781B60
:1002E000C88201460FF2040002F05CB84C5420535F
:1002F0005220256400000000DFF85C1B08830146E3
:100300000FF2040002F04EB84C5420534152202505
:10031000640000000EB410B587B0DFF8184DBDF8CA
:100320006E0000281ED1DFF8100DD0E90023CDE9C2
:100330000223D4E90001CDE90001DDE9022300F048
:1003400088FFDFF8141BC96B4FF47A724243914265
:1003500006D201460FF2280002F024F801200AE03C
:10036000002008E004A802F0B8FA204604A90522FB
:1003700002F05CFB002007B010BC5DF810FB000031
:100380004C542053544F5020436865636B696E672B
:1003900020256400DFF8C00A01210162C16100214B
:1003A0008162C1627047DFF8B00A01214162C16118
:1003B0007047DFF8A40AC0697047DFF89C0A002183
:1003C000C1610FF2080001F0EDBF00004C54205253
:1003D000455345545F434D4452440000DFF8780ACA
:1003E000002101620FF2040001F0DCBF4C542052E6
:1003F000455345545F504F5352455100DFF8580A5A
:10040000002141620FF2040001F0CCBF4C54205295
:10041000455345545F504F4941434B00DFF8380A7C
:10042000012181620021C16201727047DFF8280A50
:100430000121C16270472DE9FC4106460F469046F6
:10044000DFF8E84ADFF81C5A20462946402202F02D
:10045000FDFA85ED000B85ED021B85ED042B85F87B
:10046000296085F82A7085F82B80D4E904230020C0
:10047000014602F027FB0ED1D4E9002302F022FB53
:1004800009D1D4E9022302F01DFB04D120462946FC
:10049000402202F0DBFA95ED020B8DED000BD5E961
:1004A00000230FF20C0001F07DFFBDE8F381000096
:1004B0004C54205550504F5320256620256600008F
:1004C00030B583B0DFF89049A06A012815D1DFF874
:1004D000605A2846DFF88C19402202F0B7FA95EDF1
:1004E000020B8DED000BD5E900230FF2140001F093
:1004F00059FF0020A06201203EBD00203EBD00004B
:100500004C54203173742025662C20256600000091
:1005100030B583B0DFF84049A06A012815D1DFF873
:10052000145A2846DFF83C19402202F08FFA95ED64
:10053000020B8DED000BD5E900230FF2140001F042
:1005400031FF0020A06201203EBD0020A0623EBD20
:100550004C5420326E642025662C20256600000055
:100560000020DFF8F418CA6A012A01D1C86201200C
:1005700070470FB400B59DB0DDE92E2302F0B2FA4A
:10058000CDE90C01DDE92001DDE9302302F0AAFA12
:10059000CDE90E010CA984B06846402202F056FA5B
:1005A0000FBC00F05DFD53EC102B0020DFF8241E83
:1005B00002F058FB41EC100B1DB05DF814FB00007D
:1005C0000FB470B52DED048B9CB0DFF88C58687AB1
:1005D000002801D1002043E00A2801D30A2600E0C8
:1005E000AE7A9FED998B002422E0DFF8781801EBBA
:1005F000801000F530710CA8402202F027FA24A9DF
:1006000084B06846402202F021FA0FBCFFF7B1FF28
:10061000B0EE409AF0EE609A51EC190B53EC182BA7
:1006200002F0FEFB03D2B0EE498AF0EE698A641C48
:10063000E4B22046B042D8DB288B02F017FC024619
:100640000B4651EC180B02F0EBFB01D2002007E047
:1006500053EC182B0FF2140001F0A4FE0120E86403
:100660001CB0BDEC048B70BC5DF814FB4C542053E3
:1006700041204F55542025660000000030B585B05C
:10068000DFF8E04794F969058DF8000004F269503D
:1006900090F901108DF8011090F902008DF8020018
:1006A000B4F86C05ADF80300DFF88C59D5E900010A
:1006B000CDE90201DDE90223DDE9000100F0C9FD19
:1006C000C4F87805DFF89007D5E90023C0E90023D6
:1006D00005B030BD0FB42DE9F0412DED088B84B08D
:1006E000DFF87447DFF87C57A07A05EB80109DEDAA
:1006F000120B80EDA00B00F520709DED140B80ED2A
:10070000020B9DED160B80ED040B2099816394F88C
:100710000980B8F10A0F01D34FF00A089FEDBF8B93
:10072000B0EE489AF0EE689AB0EE48AAF0EE68AAE9
:1007300000261DE005EB861753EC182BD7E9B00116
:1007400002F0A2FB41EC180B07F5307753EC192BA4
:10075000D7E9020102F098FB41EC190B51EC1A0B9E
:10076000D7E9042302F090FB41EC1A0B761CF6B299
:100770004645DFDB404602F079FB41EC1B0B51ECB8
:10078000180B53EC1B2B02F0F3FB05F5A862C2E932
:10079000000105F2405651EC190B53EC1B2B02F0F3
:1007A000E7FBC6E9020151EC1A0B53EC1B2B02F0DC
:1007B000DFFBC6E9040195F969058DF8000005F233
:1007C000695797F901008DF8010097F902008DF83B
:1007D0000200B5F86C05ADF80300DFF85C88D8E9D5
:1007E0000001CDE90201DDE90223DDE9000100F0AD
:1007F00030FD0246C5F87825D8E90001C4E90001BA
:100800000192B87800907B7895F86925617A0FF2AB
:10081000142001F0C7FD96ED020B8DED000B05F5E0
:10082000A860D0E900230FF2606001F0BBFD032057
:10083000A0730FF2044001F0B5FD04B0BDEC088BCD
:10084000BDE8F0015DF814FB00000000006AF8400C
:100850000FB42DE9F0472DED088B86B0DFF8D047B7
:10086000DFF8D4A7DAE90001CDE90401D4E90001F9
:10087000CDE90201DDE9042300F0EBFCDFF8D855F7
:10088000A97ADFF8E06506EB81129DED160B82ED8B
:10089000B00B02F530739DED188B83ED028B9DED4F
:1008A0001A9B83ED049B237882F8E93202F2E92354
:1008B00067785F70A7789F7000B2C2F8F802481C92
:1008C000A872C0B20A2801D10020A872687A00F18B
:1008D000010885F809805FFA88F8A8F1010002F0A4
:1008E000BBFA41EC1A0B06F2405953EC1A2BD9E92A
:1008F000020102F0B7F953EC182B02F0C5FA41ECF3
:10090000180B53EC1A2BD9E9040102F0ABF953ECA4
:10091000192B02F0B9FA41EC190B404602F0A6FA85
:1009200041EC1B0B53EC1A2B06F5A86041680068DC
:1009300002F098F9DDE9162302F0A6FA53EC1B2B1E
:1009400002F016FB06F5A862C2E9000151EC180B93
:1009500053EC1B2B02F00CFBC9E9020151EC190B03
:1009600053EC1B2B02F004FBC9E9040106F26957A2
:10097000B8F1010F0AD1207886F86905607878709F
:10098000A078B870B4F80300A6F86C0596F969056C
:100990008DF8000097F901008DF8010097F9020029
:1009A0008DF80200B6F86C05ADF80300DAE9000135
:1009B000CDE90201DDE90223DDE9000100F049FC97
:1009C0000246C6F87825DAE90001C5E9000101927E
:1009D000B87800907B7896F86925697A0FF2440020
:1009E00001F0E0FC99ED020B8DED000B06F5A8601F
:1009F000D0E900230FF2904001F0D4FC687A01287E
:100A000005D10120A8730FF28C4001F0CBFC06B099
:100A1000BDEC088BBDE8F0075DF814FB000000009A
:100A2000000000004C542025642053502025643AD7
:100A300025643A25642C2025640000000FB42DE9BC
:100A4000F0472DED0A8B86B0DFF8ECA5DAE900015E
:100A5000CDE90401DFF8E804D0E90023CDE9022361
:100A6000DDE90423DDE9020100F0F3FB8046DFF855
:100A7000E843A07A461E36B2002E01D50A3636B2B9
:100A8000607A02F0F3F941EC180BF64D05EB86168F
:100A900053EC182B05F5A8604168006802F0E2F8F5
:100AA000D6E9B02302F01EF841EC190B06F53077B9
:100AB00005F2405953EC182BD9E9020102F0D2F8A3
:100AC000D7E9022302F00EF841EC1A0B53EC182B75
:100AD000D9E9040102F0C6F8D7E9042302F002F8CC
:100AE00041EC1B0B9FEDE0CBD6E9B023DDE918010B
:100AF00002F0CAF953EC1C2B02F0B4F8C6E9B001BD
:100B0000D7E90223DDE91A0102F0BEF953EC1C2BF0
:100B100002F0A8F8C7E90201D7E90423DDE91C01C6
:100B200002F0B2F953EC1C2B02F09CF8C7E9040167
:100B3000C7F8388053EC1A2BD7E9020102F0A4F968
:100B400041EC1A0B51EC1B0BD7E9042302F09CF982
:100B500041EC1B0B51EC190BD6E9B02302F094F9D0
:100B600053EC182B02F004FA05F5A862C2E9000163
:100B700051EC1A0B53EC182B02F0FAF9C9E90201F7
:100B800051EC1B0B53EC182B02F0F2F9C9E90401EC
:100B900095F969058DF8000005F2695696F901008E
:100BA0008DF8010096F902008DF80200B5F86C0589
:100BB000ADF80300DAE90001CDE90201DDE9022325
:100BC000DDE9000100F045FB0246C5F87825DAE9C9
:100BD0000001C4E900010192B0780090737895F8A3
:100BE0006925617A0FF2380001F0DCFB99ED020B08
:100BF0008DED000B05F5A860D0E900230FF28820E9
:100C000001F0D0FB0320A0730FF22C0001F0CAFB0F
:100C100006B0BDEC0A8BBDE8F0075DF814FB0000E0
:100C20004C5420256420552D53502025643A2564CA
:100C30003A25642C202564004C5420415245412023
:100C400053544159000000000FB42DE9F0472DED39
:100C50000A8B86B09FED848BDDE91823DDE928013E
:100C600002F012F953EC182B01F0FCFF41EC190BC8
:100C7000DDE91A23DDE92A0102F006F953EC182B0D
:100C800001F0F0FF41EC1A0BDDE91C23DDE92C013A
:100C900002F0FAF853EC182B01F0E4FF41EC180BCA
:100CA000A74CDFF894A3DAE90001CDE90401D4E907
:100CB0000001CDE90201DDE9042300F0CAFA664D26
:100CC000A97ADFF8B06C06EB811282EDB09B02F5D9
:100CD000307383ED02AB83ED048B237882F8E93225
:100CE00002F2E92367785F70A7789F70B4F8033049
:100CF000A2F8EC32C2F8F802481CA872C0B20A2866
:100D000001D10020A872687A00F1010885F80980F5
:100D10005FFA88F8A8F1010002F09EF841EC1B0B85
:100D200006F2405953EC1B2BD9E9020101F09AFF5E
:100D300053EC1A2B02F0A8F841EC1A0B53EC1B2BC6
:100D4000D9E9040101F08EFF53EC182B02F09CF856
:100D500041EC180B404602F089F841EC1C0B53ECB7
:100D60001B2B06F5A8604168006801F07BFF53EC7F
:100D7000192B02F089F853EC1C2B02F0F9F806F558
:100D8000A862C2E9000151EC1A0B53EC1C2B02F0D3
:100D9000EFF8C9E9020151EC180B53EC1C2B02F0DF
:100DA000E7F8C9E9040106F26957B8F1010F0AD161
:100DB000207886F8690560787870A078B870B4F803
:100DC0000300A6F86C0596F969058DF8000097F9FF
:100DD00001008DF8010097F902008DF80200B6F8C5
:100DE0006C05ADF80300DAE90001CDE90201DDE9A7
:100DF0000223DDE9000100F02CFA0246C6F878254E
:100E0000DAE90001C5E900010192B87800907B7829
:100E100096F86925697A0FF2580001F0C3FA99ED46
:100E2000020B8DED000B06F5A860D0E900230FF250
:100E3000580001F0B7FA687A012805D10120A8739B
:100E40000FF2500001F0AEFA06B0BDEC0A8BBDE81F
:100E5000F0075DF814FB00006C210120E093040012
:100E600060E3160060C20020000000000000E03FC8
:100E70004C5420256420532D53502025643A25647A
:100E80003A25642C202564004C54202566202566D4
:100E9000000000004C54204152454120494E0000C2
:100EA0000FB410B584B0DFF8D00A016B01EBC102BA
:100EB000DFF8C03A03EBC20202F5B8639DED060B02
:100EC00083ED000B9DED080B83ED020B08AC94ED58
:100ED000021B83ED041B9DF8413082F8E93502F2D4
:100EE000E9530DF1410464785C700DF14104A4787C
:100EF0009C70BDF84430A2F8EC3502F2EC5211AB14
:100F0000DB685361C48A1483048B5483002901D1A4
:100F10000121016302938DED000BDDE906230FF241
:100F2000240001F03FFA1FBC5DF814FB8022012071
:100F3000C022012000230120402301208023012022
:100F4000A82A01204C5420555341202566202566AF
:100F5000202564000FB4F0B585B0DFF81C4A4825A1
:100F6000DFF8106A206B05FB006000F5B8619DEDAD
:100F70000A0B81ED000B9DED0C0B81ED020B0CAA11
:100F800092ED020B81ED040B9DF8511080F8E915EC
:100F900000F2E9520DF151035B7853700DF15107E6
:100FA000BF789770BDF95420A0F8EC258DF8041097
:100FB0008DF805308DF80670ADF8072094F9000023
:100FC0008DF80C0060788DF80D00A0788DF80E007B
:100FD000B4F80300ADF80F00DDE90323DDE90101FA
:100FE00000F037F9074600979DF906309DF9052076
:100FF0009DF904100FF2440001F0D4F9206B05FBB9
:101000000061C1F8007601F20061E28A8A80228BD9
:10101000CA80022801D2401C20630220A0730FF274
:10102000340001F0BFF905B0F0BC5DF814FB00001E
:10103000B02A0120B82A0120A02A01204C542053B4
:101040005341312025643A25643A25642C202564D7
:10105000000000004C542041524541204F5554009F
:101060000FB430B52DED048B8DB006AA08A90AA8DF
:101070009DED140B00F06EF8DDE90A230020DFF887
:10108000FC1801F0EFFD04460D46DDE90823DFF80A
:10109000F008DFF8F01801F0E5FD22462B4601F0DC
:1010A000F3FE04460D46DDE90623DFF8DC08DFF831
:1010B000DC1801F0D7FD22462B4601F0E5FE41EC9D
:1010C000180B00AA02A904A89DED160B00F042F827
:1010D000DDE904234FF03330DFF8B41801F0C2FD2E
:1010E00004460D46DDE90223DFF8A808DFF8A8185A
:1010F00001F0B8FD22462B4601F0C6FE04460D461F
:10110000DDE90023DFF87808DFF8901801F0AAFD88
:1011100022462B4601F0B8FE41EC190B53EC182B7C
:1011200051EC180B01F09EFD04460D4653EC192BB3
:1011300051EC190B01F096FD22462B4601F0A4FE5E
:1011400041EC100B02F038F80DB0BDEC048B30BC54
:101150005DF814FB70B52DED068BB0EE408AF0EE15
:10116000608A04460D46164651EC180B53EC182BBA
:1011700001F0B8FC41EC190B9FED94AB53EC192B2B
:1011800051EC1A0B01F06EFD41EC100B84ED008B5D
:1011900085ED000B53EC1A2B01F0EAFE02460B46DC
:1011A00051EC190B01F09EFC0022DFF8F43701F03E
:1011B00059FDC6E90001BDEC068B70BDDFF8B8072C
:1011C000006A7047DFF8B007406A704780B5402278
:1011D0000021DFF8D00701F041F840220021DFF8BC
:1011E000C80701F03BF8DFF8D40D0021417281728D
:1011F000016181820FF20C00BDE8024001F0D2B81B
:10120000000000004C542052455345545F41535058
:1012100000000000DFF8A40D006B704700B5DFF898
:10122000541701F5B06001F5A861402201F00EFCF1
:10123000DFF8880D0021016300BDC9B201EBC102D6
:10124000DFF8301701EBC20101F5B861482201F067
:10125000FDBB3FB581B04FF47A704EF66022DFF8E7
:10126000603D9DF904109DF90540544303FB014185
:101270009DF9064014FB0011BDF9074001FA84F105
:101280009DF90C409DF90D506A4303FB04229DF922
:101290000E3013FB0020BDF90F2000FA82F0441A33
:1012A00042F20F721319934205D200240FF23C0050
:1012B00001F078F807E0DFF80C2D944203DADFF84C
:1012C000082D1018441ADFF8040D844200DB044690
:1012D000204601F0C1FDDFF8F82CDFF8F83C01F002
:1012E000C1FC05B0BDE8304001F0E6BF41542D4CD3
:1012F0005420646966662054696D65205265736583
:10130000740000002DE9F64382B081460B98BDF9C8
:101310000B404EF66025DFF8A86C9DF908109DF98A
:1013200009206A4306FB01219DF90A204FF47A77D0
:1013300012FB071101FA84F1412808D15F18DFF888
:10134000980C87420BD3DFF8940CC71907E0994239
:1013500004D2DFF8740C4018C71A00E0CF1A3846E0
:1013600001F084FD0022DFF8783C01F001FE01F07D
:10137000A3FF80465FFA88F806FB1876304601F036
:1013800075FD0022DFF85C3C01F0F2FD01F094FFF6
:10139000C0B28DF8008001468DF8011005FB106089
:1013A00001F064FDDFF8282CDFF8283C01F05AFC3E
:1013B00001F082FF8DF80200ADF80340484600A915
:1013C000052201F033FB04B0BDE8F083000000000B
:1013D00000004E4000408F4010B50024DFF8980513
:1013E000C16C012907D101240021C1640FF254000E
:1013F00000F0D8FF23E0DFF87C05D0F87815D0F8AE
:10140000B825914216D190F8691590F8A925914216
:1014100010D100F2A95100F2695042784B789A42FB
:1014200008D180788978884204D10FF6E43000F042
:10143000B9FF04E001240FF6E03000F0B3FF2046CE
:1014400010BD00004C5420465500000000B58DB082
:10145000DFF82405407A00280AD0DFF88C1B84B01E
:101460006846402201F0F2FA0FBCFFF719FD06E0D2
:101470000FF6AC300DB05DF804EB00F093BF0DB08B
:1014800000BD00001CB5DFF8F044217B61732073C0
:10149000401E05284DD8DFE800F0034C16222C41F1
:1014A00000A801F01AFADFF8440B00A9052201F0A8
:1014B000BDFA616C21640020E0720FF67030BDE867
:1014C0001C4000F06FBF00A801F007FADFF81C0B0A
:1014D00000A9052201F0AAFAA06BA06413BD00A820
:1014E00001F0FBF9DFF8040B00A9052201F09EFAD8
:1014F00013BD00202061A08240220146DFF8A8042D
:1015000000F0ACFE00A801F0E8F9DFF8E00A00A95D
:10151000052201F08BFAA06BA06413BD00A801F0B6
:10152000DCF9DFF8C80A00A9052201F07FFAA06BF8
:10153000A06413BD0CB400B583B09DF939108DF8CB
:1015400000100DF1390191F901108DF801100DF124
:10155000390191F902108DF802100021ADF8031045
:1015600000A9052201F062FA0EBC5DF80CFB000038
:101570002DE9F04F2DED0A8B9DB082469FED558BE6
:10158000DFF8F483B8F81000B8F81290814502D261
:101590005FFA89F901E0C0B28146B8F91400461E2D
:1015A00000D50A36DFF8CCB30BEB861797ED109B0E
:1015B00097ED12AB97ED14BB01243CE0301A00D537
:1015C0000A300BEB801505F140010CA8402201F018
:1015D0003DFA07F1400184B06846402201F036FA36
:1015E0000FBCFEF7C6FFB0EE40CAF0EE60CA51EC89
:1015F000180B53EC1C2B01F013FC03D2B0EE4C8AF9
:10160000F0EE6C8A53EC1B2BD5E9140101F03CFC85
:1016100041EC1B0B53EC192BD5E9100101F034FC04
:1016200041EC190B51EC1A0BD5E9122301F02CFCFB
:1016300041EC1A0B641CE4B220464845BEDB484628
:1016400001F014FC41EC1C0B51EC1B0B53EC1C2B5C
:1016500001F08EFCCAE9040151EC190B53EC1C2B70
:1016600001F086FCCAE9000151EC1A0B53EC1C2B6B
:1016700001F07EFCCAE90201B8F81000B8F81210B7
:1016800088421ED207F140010CA8402201F0DEF989
:10169000DFF85C1984B06846402201F0D7F90FBC2E
:1016A000FEF767FFB0EE40CAF0EE60CA51EC180BCF
:1016B00053EC1C2B01F0B4FB03D2B0EE4C8AF0EEDD
:1016C0006C8AB0EE480AF0EE680A1DB0BDEC0A8BD9
:1016D000BDE8F08F00000000000000000FB42DE90D
:1016E000F0412DED068BA0B02CA984B068464022B5
:1016F00001F0ACF90FBCFEF763FF9F4D68639D4E90
:10170000012812D10020686306F5A86184B06846FC
:10171000402201F09BF90FBCFFF71CFCFFF756FDC0
:101720000FF6181000F03EFE18E1B5F9144006EB74
:10173000841040302CA9402201F088F9601CA88256
:1017400000B20A2801D10020A882288A0A2801D2E2
:10175000401C2882688A401C6882314682B06846F4
:10176000402201F073F90CBC0EA8FFF7E3FE288AB3
:101770000A2801D2002700E02F7D8B4CD4E900011C
:101780000022134601F09EF92FD1D4E9020101F0A5
:1017900099F92AD1D4E9040101F094F925D106EB95
:1017A0008716DFF8508896F9690088F8000006F27D
:1017B000690090F9011088F8011090F9020088F88A
:1017C0000200B6F86C00A8F80300DFF8240806F160
:1017D0004001402201F03AF9204606F14001402242
:1017E00001F034F90020A063B8E010A8FFF7C0FEB4
:1017F000B0EE408AF0EE608ADFF8F887288B400868
:1018000001F034FB53EC182B01F00AFB28D206EB55
:10181000871696F9690088F8000006F2690090F9C9
:10182000011088F8011090F9020088F80200B6F85B
:101830006C00A8F80300DFF8B80706F14001402269
:1018400001F004F9204606F14001402201F0FEF8C3
:101850000020A06368820FF2F47000F0A3FD7DE029
:10186000D8E90001CDE90001DDE90E23FFF7F1FC25
:10187000064631460FF2E47000F094FD286C4FF4F8
:101880007A717143884269D26F8A042F66D3A06B44
:10189000002816D19DED100B84ED000B9DED120B71
:1018A00084ED020B9DED140B84ED040BA663214621
:1018B00084B06846402201F0C9F80FBCFEF7C8FFAB
:1018C00043E0781E01F0C8FA41EC190B384601F0EC
:1018D000CDFA41EC1A0B51EC190BD4E9002301F0BD
:1018E000C1F9DDE92C2301F0CFFA53EC1A2B01F0FA
:1018F0003FFBC4E9000151EC190BD4E9022301F0CC
:10190000B1F9DDE92E2301F0BFFA53EC1A2B01F0F7
:101910002FFBC4E9020151EC190BD4E9042301F0B7
:10192000A1F9DDE9302301F0AFFA53EC1A2B01F0F5
:101930001FFBC4E90401A663214684B06846402227
:1019400001F084F80FBCFEF7C5FEA06B009053ECCD
:10195000182B698A0FF2147000F024FD20B0BDEC42
:10196000068BBDE8F0015DF814FB7047DFF84C060C
:10197000807B704760C200206C21012000C05B406A
:101980009A9999999999FD3F5839B4C876BE9F3F65
:1019900033335640AE47E17A14AEF73F9999993FF9
:1019A0000020AC40A0C70020402301200EB470B539
:1019B0002DED028B9FB00646DFF80046A06B08189D
:1019C000A06300A800F089FFDFF82C56284600A984
:1019D000052201F02BF8207B062800F2E782DFE8E1
:1019E00010F0070012007400C1006A011402C00266
:1019F000FFF7ECFB0120FFF745FD217B0FF2846030
:101A000000F0D0FCD2E225A983B06846582201F04C
:101A10001DF80EBC304680B2FEF77CFC002843D097
:101A2000D5E90001CDE903014D200090E36BDDE92C
:101A300003010A46014601A8FFF764FCDFF8BC0574
:101A400001A9052200F0F2FFDFF8B41582B0684664
:101A5000402200F0FBFF0CBC1CA8FFF76BFDD5E992
:101A60000001CDE90001DDE90023DDE91C01FFF7FC
:101A7000F0FB05463D2D07DB29460FF2186000F00C
:101A800091FCFEF787FC06E00120A06229460FF2D8
:101A9000146000F087FC0220FFF7F4FC217B0FF2BA
:101AA000146000F07FFC81E2A06A012840F07E8291
:101AB0000020A062DFF8481584B06846402200F09C
:101AC000C5FF0FBCFFF70AFE70E2FEF7F9FC002825
:101AD00034D00320FFF7D6FC0FF2E85000F062FC90
:101AE000607A00281FD0DFF81C55294684B068466C
:101AF000402200F0ABFF0FBCFEF762FD60630128DF
:101B000011D100206063DFF8E01484B06846402201
:101B100000F09CFF0FBCFFF71DFAFFF757FB0FF219
:101B2000B85000F03FFCDFF8D81484B0684640227B
:101B300000F08CFF0FBCFFF7D1FD37E2FEF710FD80
:101B4000002800F03382207A401C2072C0B20328A3
:101B500080F043810120FFF795FC0FF2985000F0D0
:101B600021FC23E2A06A012851D10020A062DFF805
:101B70009064607A00281DD0314684B068464022C7
:101B800000F064FF0FBCFEF71BFD6063012811D15C
:101B90000020606306F5A86184B06846402200F02A
:101BA00055FF0FBCFFF7D6F9FFF710FB0FF25C50A3
:101BB00000F0F8FB314684B06846402200F046FF52
:101BC0000FBCFFF78BFD31460CA8402200F03EFF12
:101BD000DFF8301484B06846402200F037FF0FBCB5
:101BE000FEF7C7FCB0EE408AF0EE608AE08A01F0B2
:101BF0003DF953EC182B01F013F908D20120FFF73F
:101C000041FC53EC182B0FF2105000F0CBFBD5E940
:101C10000001CDE90201DFF8D403D0E90023CDE9CA
:101C20000023DDE90223DDE90001FFF712FBA16BD0
:101C3000A26C8E1A332E08D30120FFF723FC314605
:101C40000FF2EC4000F0AEFBB0E1216C4FF47A7281
:101C50005043814280F0AA81DFF8A41382B0684625
:101C6000402200F0F3FE0CBC1CA8FFF763FCD5E992
:101C70000001CDE90001DDE90023DDE91C01FFF7EA
:101C8000E8FA05463D2D07DBFEF784FB29460FF2F7
:101C9000B84000F087FB06E00120A06229460FF261
:101CA000044000F07FFB0420FFF7ECFB0FF2A8409C
:101CB00000F078FB7AE1FEF72BFC002800F0828030
:101CC000D14E314684B06846402200F0BFFE0FBCC2
:101CD000FEF776FC6063012818D100206063C249DA
:101CE00084B06846402200F0B1FE0FBCFFF732F925
:101CF000FFF76CFA0FF2704000F054FB607B052890
:101D000040F054810120FFF7BDFB4FE1BD4D31464E
:101D10000CA8402200F09AFE294684B06846402272
:101D200000F094FE0FBCFEF724FCB0EE408AF0EE0B
:101D3000608AE08A01F09AF802460B4651EC180BD3
:101D400001F06EF82BD2607B052831460CD184B0AF
:101D50006846402200F07AFE0FBCFEF76FFE0FF2DD
:101D6000144000F01FFB10E00CA8402200F06EFEB3
:101D7000294684B06846402200F068FE0FBCFEF79A
:101D800063FF0FF2FC3000F00DFBFEF70CFB0520AB
:101D9000FFF778FB0FF2F03000F004FB06E10120C2
:101DA000FFF770FB53EC182B0FF2F03000F0FAFA4B
:101DB000934984B06846402200F048FE0FBCFFF70C
:101DC0008DFCF3E0FEF7CCFB002800F0EF80207ADA
:101DD000401C2072C0B2032807D30620FFF752FB35
:101DE0000FF2003000F0DEFAE0E0884820640320C3
:101DF000FFF748FB217A0FF2B83000F0D3FA216CDC
:101E00000FF2282000F0CEFAD0E0A06A012846D1D7
:101E10000020A0627A4E607A00281DD0314684B03E
:101E20006846402200F012FE0FBCFEF7C9FB60635B
:101E3000012811D10020606306F5A86184B06846CE
:101E4000402200F003FE0FBCFFF784F8FFF7BEF955
:101E50000FF2743000F0A6FA31460CA8402200F0D0
:101E6000F5FD684984B06846402200F0EFFD0FBCE4
:101E7000FEF77FFBB0EE408AF0EE608AE08A00F069
:101E8000F5FF53EC182B00F0CBFF08D20120FFF731
:101E9000F9FA53EC182B0FF23C3000F083FAD5E935
:101EA0000001CDE902015148D0E90023CDE900232A
:101EB000DDE90223DDE90001FFF7CBF9A16BA26C9C
:101EC0008E1A332E08D30120FFF7DCFA31460FF2C9
:101ED0001C3000F067FA69E0216C4FF47A725043CD
:101EE00081423BD2464E96F929008DF8700006F2E9
:101EF000290090F901108DF8711090F902008DF809
:101F00007200D5E90001CDE90001DDE90023DDE93A
:101F10001C01FFF79EF905463D2D07DBFEF73AFA57
:101F200029460FF2E02000F03DFA06E00120A06211
:101F300029460FF2E02000F035FA0420FFF7A2FA5C
:101F4000E07A401CE072C0B203282FD3606C4100DD
:101F500021640FF2D80000F025FA27E0FEF78EFB8F
:101F600024E0A06BA16C401A33280BD30120FFF7AB
:101F700089FA0FF2B42000F015FA0FF2C02000F039
:101F800011FA13E0A06A01280BD10120FFF77AFAB9
:101F90000FF2B42000F006FA0FF2A02000F002FACF
:101FA00004E0607B042801D1FEF768FB207B1FB0B2
:101FB000BDEC028B70BC5DF810FB00006C210120B1
:101FC00080EE3600F1D8FFFF005C2605C0E40A056C
:101FD000FCA9F1D24D62503F015C260500A4D9FA5C
:101FE00040774B41004CED40A0C70020B82A0120AB
:101FF00080230120B02A0120A02A0120A82A012044
:1020000060C20020C022012000230120E0930400D0
:102010004C542053410000004C542044490000001F
:102020004C54204E6F20504F530000004C542D57FD
:1020300050204348414E4745202564004C542053CE
:10204000617665205341554D000000004C542052EC
:10205000455345545F474150000000004C54204711
:1020600041204D546D202564000000004C54205345
:102070005020534741522025642C2025662C2025D2
:10208000640000004C542D434B5F53544F502025A7
:10209000640000004C5420524551504F532D4620AF
:1020A000256400004C54204E2D524551504F532072
:1020B000256400004C542D4745545F315F504F5309
:1020C000202564004C542D434B5F555345525F4DC2
:1020D0004F564554000000004C54205353412D46A8
:1020E000500000004C542D53535F50415553455FF1
:1020F000535300004C542053535F475053204E4FCE
:1021000054204F4B20317374000000004C54205376
:1021100053412D554D0000004C542D434B5F5354FB
:102120004F502D554D2D64697374202566000000B5
:102130004C542D434B5F53544F502D554D2D7374BC
:1021400065702025640000004C5420524551504FCA
:10215000532D5320256400004C542D4745545F32C5
:102160005F504F53000000004C54205353412D53F7
:10217000500000004C54205544542053500000009F
:102180004C542053535000004C542D434B5F555337
:1021900045525F4C454156494E4700004C542D4333
:1021A0004845434B5F53544F502D535020256600F4
:1021B0004C542D475053204E4F54204F4B20326EDD
:1021C00064202564000000004C54205353412D55D9
:1021D0004C0000004C542D434B5F53544F502D5531
:1021E0004C20646973742025660000004C542D4314
:1021F0004B5F53544F5020554C207374657020250D
:10220000640000004C5420524551504F532D554C02
:10221000202564004C54204E2D524551504F532DD3
:10222000554C2025640000004C5420535320414756
:1022300041494E2042592053544550004C542D439F
:102240004B5F53544F5000004C5420535320414790
:1022500041494E20425920504F53000010B50446CA
:1022600010460A460146204601F052F8204610BDAD
:10227000BFF34F8FDFF81807016801F4E061DFF862
:10228000402711430160BFF34F8FFEE710B5DFF821
:1022900034474FF48E7200212046FFF7DFFF2046BF
:1022A00010BDDFF82007704710B5FFF7EFFF0446B9
:1022B00000231A461146084600F06EFAC046C04692
:1022C00001F05AF8204600F018F801F0ACFA204668
:1022D00000F0CFF9204600F014F8204600F01EF878
:1022E00000F092F900206072A072E0722073012069
:1022F00060730020E075012010BD0021C1710172E2
:1023000031E010B50446DFF88C0601F0E1F8DFF8A3
:10231000B80601F0DDF80120607110BD10B504466B
:1023200001F041F90120A07110BD38B50446012526
:1023300001F0ECF9012804D12846E0700020A070DB
:102340000AE0022804D10020E0702846A07003E0D3
:102350000020E070A0700546284632BD80B501F02F
:1023600027FB012002BD10B50446E07901F04EFCC8
:102370000121217010BD70B504460025E679E17198
:10238000FFF7F1FF002807D02046FFF7BAFF2046ED
:10239000FFF7C4FF012503E0E6712046FFF7E3FFE6
:1023A000284670BD0EB470B5C1B0054600A84FF404
:1023B000807102F0B7F9FFF774FF044645AB2A4677
:1023C0004FF4807100A802F0B1F900A802F0CCF936
:1023D000451C00A82818002100F8011CDFF8EC6556
:1023E0003078401C30707078F021084202D099207B
:1023F00002F0D6F902F041FA7078401C7070207E2D
:102400002818FF2810DA207E002803D0207E00192B
:102410000A2101762A4600A9207E0019193002F00F
:1024200043FA207E2818207600A802F094FC7078E9
:10243000F021084202D0992002F0B2F97078401ED3
:102440007070C0B2002801D102F011FA03F071F8E7
:1024500041B070BC5DF810FB0428DFF83C0503D8E0
:10246000DFF8301501607047DFF85C1501607047D8
:10247000DFF8281551F82000007F002807D0DFF88A
:10248000500501784A1C0270032900D3F0E670471A
:102490002DE9F84305460E4617464FF00208DFF8CF
:1024A0002C456078F021084202D0992002F078F99A
:1024B00002F0E3F96078401C60709DF80000401E57
:1024C0008DF8000017F8019B2846FFF7C5FF00AB09
:1024D0004A463946304601F0B2FC002810D06078F8
:1024E000F021084202D0992002F05AF96078401E8B
:1024F0006070C0B2002801D102F0B9F901201FE0DC
:102500005FFA88F8424629460FF2D040FFF74AFFAB
:102510004046A0F101080028D9D16078F021084296
:1025200002D0992002F03CF96078401E6070C0B281
:10253000002801D102F09BF92846FFF799FF0020FF
:10254000BDE8F2832DE9F04704460D4616461F46C6
:102550000898DFF84C8488F80000DFF8709499F848
:102560000100F021084202D0992002F019F902F08E
:1025700084F999F80100401C89F801002046FFF712
:102580006BFF4FF0020A434632463946284601F0B7
:1025900005FD002813D099F80100F021084202D06F
:1025A000992002F0FDF899F80100401E89F8010019
:1025B000C0B2002801D102F05AF9012022E05FFAEE
:1025C0008AFA524621460FF22040FFF7EBFE5046B2
:1025D000A0F1010A0028D6D199F80100F0210842A3
:1025E00002D0992002F0DCF899F80100401E89F829
:1025F0000100C0B2002801D102F039F92046FFF7EE
:1026000037FF0020BDE8F08703F0C2BCF8B50446F0
:1026100002270025DFF884630DE039464F1EC9B25A
:1026200000290AD1002804D120690121A94088434A
:10263000206102276D1C152D10DA56F82500006E5A
:10264000006880470128E8D121690122AA4011438E
:10265000216156F8251001220A77E3E72069032853
:1026600003D0022801D0012802D140F4805020611B
:10267000F1BD01F0D9BD01F034BE81B00022ADF84A
:102680000220ADF80020C079042808D0062809D01F
:1026900008280AD009280BD00A280CD00EE04FF4E5
:1026A000C8600DE04FF448600AE04FF4C85007E0FE
:1026B0004FF4FA5004E042F2107001E041F2707001
:1026C000ADF802200DE0BDF80020521CADF800204E
:1026D000BDF800208242F6DBBDF80220521CADF8A6
:1026E0000220BDF802208A4203D20022ADF8002069
:1026F000EEE701B07047417230B589B003F008FDD4
:102700000446FFF7CEFD054600A8242102F00AF892
:102710000020ADF8220001900A208DF8080000206A
:102720008DF809008DF80A00687A00280DD0002C79
:1027300018D000208DF80000052001900B208DF8A6
:10274000080000A805F034FB0CE0002C0AD00120A2
:102750008DF80000052001900B208DF8080000A8DE
:1027600005F026FB09B030BD01F0D8BD01F0E0BD99
:1027700001210846F8E701210846F7E70221012078
:10278000F2E702210120F1E701F0DCBD10B50446BB
:10279000FFF787FD447510BD2DE9F8430546174640
:1027A0000E464FF47A704FF03C0C4FF4616815FB05
:1027B00008F416FB0C443C1900FB0434DFF8E4E198
:1027C0009EF9009019FB08F89EF9019019FB0C8CFA
:1027D0009EF902804CFA88FCBEF9038000FB0C8055
:1027E0009EF808C0BCF1000F20D141EA050010435B
:1027F000184302D001208EF808008EF800502846B9
:10280000002802D518308EF800008EF801108EF8DE
:102810000220AEF8033000933B4632469EF900108A
:102820000FF2F410FFF7BEFDBDE8F183A0420ED316
:10283000A0EB040CACF2D17CDFF89881C445DCD36A
:10284000224601460FF2AC10BDE8F843AAE5D4D207
:10285000A4EB000CACF2D178DFF87891C845CCD36A
:102860006346224601460FF29C1001B0BDE8F043DA
:1028700098E510B504002FD003F0FFFC4949CA6861
:10288000002A00D0841AB1F80320A218A1F803206E
:1028900012B2B2F57A7F06DBA2F57A72A1F80320B4
:1028A0008A78521C8A7091F902203C2A04DB3C3A57
:1028B0008A704A78521C4A7091F901203C2A04DB44
:1028C0003C3A4A700A78521C0A7091F90020182A82
:1028D00001DB00220A70C86010BD3249052200F0F9
:1028E000A5B800000FB410B52DED028B2E4C10468C
:1028F00000F0BCFA2D4A2E4B00F0B4F92061616162
:102900009FED2C8B049800F0B1FA53EC182B00F0DB
:10291000A9F920606160059800F0A8FA53EC182B23
:1029200000F0A0F9A060E1609DF81C00207604F1A1
:1029300018009DF81D1041709DF81E1081709DF8C3
:102940001F10C1709DF820100171BDF8210000EE2C
:10295000100AB8EE400A10EE100A05F051FB174AB3
:102960001D4B00F07FF905F073FBC4F81D00BDF8A6
:102970002300A4F821009DF8250084F82300BDEC75
:10298000028B10BC5DF814FB0749242200F04EB8FE
:102990000CED00E0005400402C7A002000400020A4
:1029A0003D2B0120CC28012028260120FCA9F1D2B2
:1029B0004D62503F8DEDB5A0F7C6B03E3BDF4F8D69
:1029C0000400FA05940601200058004024790020F4
:1029D0003C2B01205F4C2605976EA23F49574520AE
:1029E00025642025640000004952452025642025E7
:1029F0006400000041542D53657454533120256404
:102A00002025640041542D536574545332202564AD
:102A1000202564202564000041542D536574542002
:102A200025643A25643A25642E25640062B38B0739
:102A300008D0521E11F8013B00F8013B00F0248041
:102A40008B07F6D1830740F0208000BF103A07D3F0
:102A500030B4B1E83810103AA0E83810F9D230BCE0
:102A6000530724BFB1E80810A0E8081044BF51F88C
:102A7000043B40F8043BD20724BF31F8022B20F876
:102A8000022B44BF0B7803707047083A07D3B1E8B4
:102A90000810083A40F8043B40F804CBF7D253073B
:102AA000E4E750F8041B61B150F8042BD30744BF8E
:102AB000A9F101039A18002342F8043B091FFAD137
:102AC000EFE7704790420CD141EA030C50EA4C0CFE
:102AD00007D0994205D14FF4001C1CEB410F38BFC1
:102AE0008942704770B44FF0004591EA030F44BF2C
:102AF0006B4000F0D3B900BF841A71EB030604D217
:102B00006E40001BB141121973414FF4001C1CEBC5
:102B1000410F34BF7CEB430684E00C0DA4EB13564D
:102B2000362E7DDC012E43DC45EAC32343EA5253B3
:102B300012BFD20292025B08240545EAC12141EA94
:102B40005051D2EBC020994125D407D1B0FA80F67C
:102B500010FA06F164D00020203608E0B1FA81F6C0
:102B6000B140C6F1200220FA02F21143B0404FEA10
:102B7000F474B4EB465434F001064FEA74040AD8F6
:102B8000D6F50016760D04F00044F04061FA06F226
:102B90005040F1404840C00A40EA415021F0004115
:102BA00028BF5FEA500550F1000044EBD12137E027
:102BB00045EAC323DB0A45EAC121C90AB6F120056B
:102BC0000EDD42EA0242120CC5F1200603FA06F6B7
:102BD000EB4042EA06056D42984161F100010DE0CB
:102BE00062FA06F5F240554063FA06FC82EA0C02EE
:102BF000F3405A406D42904161EB030111F4801F94
:102C000005D1641E620502D06D004041494121F4A6
:102C10008011430875F1004350F1000041EB04516D
:102C200070BC70471CEB410F15D223F0004352EAF1
:102C300043060BD04FEA4C0CBCEB410F04D80C0DF3
:102C4000661E342EB7DDEBE7801A994150EA410643
:102C500008BF0021E4E708BF1CEB430F28BF6FF05B
:102C60000001DDE7B0B581EA030C0CF0004C40F246
:102C7000FF7515EA11541DBF15EA1357AC42AF4258
:102C800039E0E41923EA455343F48013C90241F0C3
:102C9000004141EA505EC7021100A7FB0202002872
:102CA0004FF00000EEFB01204FF00001E3FB072195
:102CB00018BF42F00102401800214941E3FB0E0118
:102CC000A4F580640F0302D252004041494154F1FF
:102CD00001046CDD470872F1004250F1000051EB35
:102CE0000451A1F580115CBF41EA0C01B0BD4CEA72
:102CF00005510020B0BD05EA1357AC4214BFAF42E6
:102D000041E050EA410E1CBF52EA430E02E0614628
:102D10000020B0BD24423C441BD15FEA070EF6D030
:102D2000090302BF01460020AEF1140EB1FA81F78B
:102D3000AEEB070401FA07FE0C37C7F1200100FAD9
:102D400007F7C8404EEA000E23EA455343F48013C8
:102D5000A2E733F00043B3FA83F704BFB2FA82FE6E
:102D600077440B3FE41BB7F1200E2FBF02FA0EF39E
:102D7000BB40C7F1200E22FA0EFE38BF43EA0E0315
:102D8000BA40641C82E750EA410E14BF52EA430E77
:102D90006FF000014FF4001717EB430F8ABF19467D
:102DA00017EB410FB5E74CEA05510020B0BDD4F157
:102DB0000104B4F120070FDAC4F12007520828BF3C
:102DC00042F0010210FA07F501FA07F7E1BF2A43C2
:102DD000E0403843E1400FE0352C98DCC7F1200497
:102DE00052EA400220FA07F218BF42F0010231FA1B
:102DF00007F0A1400A43002172F1004250F10000A7
:102E000051EB0C01B0BD8268521C8260426832B145
:102E10000268531C036011704168491E416070478D
:102E20004FF4001C1CEB410F94BF1CEB430F09E057
:102E300041EA030C50EA4C0C52EA0C0C03D29942C2
:102E400008BF9042704714BF8B42824270470268AD
:102E5000531C036011707047010040F10980F44673
:102E6000404200F005F851F000416047010000BF0A
:102E700009D0B0FA80F18840C91CC1F58461090508
:102E800001EBD0214005704770B44FF0004591EA46
:102E9000030C44BF6B40FFF72FBE00BF841A71EBD9
:102EA000030603D2001BB141121973414FF4001CF9
:102EB0001CEB410F34BF7CEB430443E00C0DA4EB4F
:102EC0001356352E50DC45EAC323DB0A45EAC121FF
:102ED000C912B6F120050DDD63FA05F6EB4086EA6E
:102EE0000305124218BF45F00105C01851F1000159
:102EF0000CD213E062FA06F5F2405540F3415A4015
:102F0000B340F3405A408018594107D349085FEA5B
:102F100030005FEA350528BF45F0010501F5801155
:102F2000420875F1004250F1000041EB045170BCC1
:102F30004FF4001C1CEB410F38BF70470020090DF7
:102F4000090570471CEB410F10D252EA43060BD023
:102F5000BCEB410F05D80C0DAB43661E342EB5DD1E
:102F600002E0AB438018594170BC704770BC704799
:102F7000F0B540F2FF7581EA030C0CF0004C15EA45
:102F800011541DBF15EA1357AC42AF42E5E0BC41F6
:102F9000C1F31301C3F31303801A994143F480135F
:102FA00004D2641E4000494180185941C90241EAD7
:102FB0005051B1FBF3F603FB1611A2FB0675D7EBDC
:102FC000C020A94102D2761E80185941C90241EAA7
:102FD0005051B1FBF3FE03FB1E11A2FB0E75D7EBA4
:102FE000C020A94103D2AEF1010E801859418902D7
:102FF00041EA9051760546EA8E2EB1FBF3F603FBCB
:103000001611A2FB0675D7EB8020A94102D2761ECD
:1030100080185941C90241EA50514EEA060EB1FBEF
:10302000F3F603FB1611A2FB0675D7EBC020A941EE
:1030300002D2761E80185941C90241EA5051B1FBB3
:10304000F3F703FB1711A2FB0735D3EBC020A9410F
:1030500067F100070CBF004247F0010766F3D52770
:103060004FEA1E31B80814F5806412DDBD0775F112
:10307000004250EB0E5051EB045111F5801F5CBF24
:1030800041EA0C01F0BD4CF07F6141F0E0410020CD
:10309000F0BDBD076D0840EA0E5041F48011D4F137
:1030A0000104B4F120060ADAC4F120060200E0406F
:1030B00001FA06F3E1401843B24015430EE0342C08
:1030C00013DCC6F1200445EA40056D0820FA06F23B
:1030D000154321FA06F0A1400D43002175F100428D
:1030E00050F1000051EB0C01F0BD00205FEA0C0133
:1030F000F0BDCFB992185B41B3FA83F704BFB2FABF
:1031000082F6BF190B3FB7F120062FBF02FA06F374
:10311000BB40C7F1200622FA06F638BF3343BA4057
:103120001CB1E419641E33E77F4231F00041B1FA6B
:1031300081F404BFB0FA80F6A4190B3CB4F1200668
:103140002FBF00FA06F1A140C4F1200620FA06F6CE
:1031500038BF3143A0403C1B1AE7AC421ABF05EA16
:103160001357AF4212E050EA41061CBF52EA430631
:10317000BFE750EA4107304661461CBF41EA0551AE
:10318000F0BD52EA430C08BFC143F0BD00204FF42C
:10319000001616EB410F98BF16EB430F08BF16EB56
:1031A000410F24BFC14305E016EB430F0CBF61463E
:1031B0004CEA0551F0BD000051EC100B00B500F0D9
:1031C00003F841EC100B00BD40F2FF7C0B0D4DD01D
:1031D000634566D230B421EA035141F4801103F211
:1031E000FD3C5FEA5C0C01D300184941890041EACB
:1031F000907180004FF440140023E202D50AB1F52B
:10320000100107D46D081DD2091B6419001849412B
:10321000491BF7D56D080AD20919641B00184941EA
:10322000491BEFD56D08F7D301E0520817D0C0183D
:1032300061419B1AAC4100184941801AA941F4D45C
:1032400052080AD0C01AA1419B186C41001849418C
:10325000801AA941E9D45208F4D15B1C6C41610881
:103260004FEA330001EB0C5130BC704750EA0103C8
:10327000FBD030B4B1FA81F311B9B0FA80F41B1964
:103280000B3BB3F120042FBF00FA04F19940C3F1C6
:10329000200420FA04F438BF21439840D3F10103FD
:1032A0009DE76345E1D011F5801FDED850EA41016A
:1032B000DBD0D94304F014BFF446400D40EAC120EE
:1032C000490006D200F014F8004248BF6FF00040F9
:1032D000604700F00DF84FF0004188428CBF08466F
:1032E00040426047400D40EAC120490080F00D8017
:1032F00040F00040490DA1F58061491C05D4D1F191
:103300001F0154BFC840C01770474FF000007047FE
:1033100062F30F2262F31F42401810F0030308D03B
:10332000C91A1FD3DB0748BF00F8012D28BF20F8BA
:10333000022D130030B414461546103928BF20E979
:103340003C00FAD8490728BF20E90C0048BF40F8E4
:10335000042D890028BF20F8022D48BF00F8012D58
:1033600030BC7047C91818BF00F8012DCB0728BF23
:1033700000F8012D7047000030B583B00121032013
:1033800004F018FFDFF80C4C204604F0AFFFDFF824
:10339000085C284604F0AAFF01208DF804000020F4
:1033A0008DF8050001208DF8060000208DF807003B
:1033B000012128460183C0460120009000A928462B
:1033C00004F0F0FF022128460183C046022000904D
:1033D00000A9284604F0E6FF01208DF80400002033
:1033E0008DF80500ADF806004FF48070009000A93C
:1033F000284604F0D7FF4FF4807128464183C04629
:1034000001208DF8040000208DF8050001208DF8C2
:10341000060000208DF807004FF48050009000A9AE
:10342000204604F0BFFF4FF4805120464183C04640
:1034300004220621284605F003F804220721284625
:1034400004F0FEFF02208DF8040001208DF8050035
:103450008DF8060000208DF807004020009000A99C
:10346000284604F09FFF8020009000A9284604F021
:1034700099FF04220A21284604F0E2FF09220321D1
:10348000284604F0DDFF02208DF8040001208DF8AD
:1034900005008DF8060000208DF807004FF48060CD
:1034A000009000A9284604F07DFF0820009000A9A4
:1034B000284604F077FF286820F0300040F0100024
:1034C0002860206820F0300040F01000206037BDF8
:1034D0001FB5DFF8A84CA04230D101214FF40010F5
:1034E00004F073FE0121022004F064FE01214FF478
:1034F000001004F08BFE00214FF4001004F086FE53
:103500000020ADF804004BF6FF70ADF806004FF454
:103510008060ADF80A004FF48040ADF80C000A203E
:10352000ADF80800DFF8580C009000A9204604F020
:10353000CAFF0121204605F029F81FBDDFF8444CE1
:10354000A0422FD101214FF4800004F03EFE012162
:10355000022004F02FFE01214FF4800004F056FEFB
:1035600000214FF4800004F051FE0020ADF804006B
:103570004BF6FF70ADF806004FF48060ADF80A001E
:103580004FF48040ADF80C000A20ADF80800DFF8D9
:10359000F00B009000A9204604F095FF0121204681
:1035A00004F0F4FF1FBD2DE9F04192B001214FF46A
:1035B000805004F015FE0121084604F0FBFD0121B6
:1035C0004FF4800004F0F6FDDFF8C84905221146EB
:1035D000204604F035FF05220721204604F030FF85
:1035E00005220621204604F02BFF05220421204657
:1035F00004F026FF02208DF8040001208DF805005C
:103600000020ADF806002020009000A9204604F01C
:10361000C9FE8020009000A9204604F0C3FE40208F
:10362000009000A9204604F0BDFE1020009000A9E3
:10363000204604F0B7FEDFF8504B204605F008F8AE
:10364000DFF8485B00202880686001202881002086
:103650006881E8600720288200206880DFF8306BEE
:10366000304605F065F8DFF82C7B384605F060F849
:103670004FF48060069000210D9103210E910021EE
:103680000F910A910890DFF8C80B0390084610903C
:10369000099007904FF400300C9008460B904FF0C3
:1036A000C068CDF80880402005900846049002A923
:1036B000304605F0C1F800200B90CDF80880059049
:1036C00005F11400049002A9384605F0B5F8002071
:1036D00068802946204604F0EAFF012202212046A4
:1036E00005F014F801221146204605F00FF80121DB
:1036F000204604F0FFFF0021304605F0C4F8002109
:10370000384605F0C0F812B0BDE8F08130B589B098
:1037100001214FF0805004F058FD012005F01CF904
:1037200001214FF4802004F045FD0F2005F0C4FA7C
:103730000446102005F0C0FA0546012004F037FDCC
:10374000002004F034FD21460F2005F0A8FA294698
:10375000102005F0A4FA00214FF4802004F02AFD87
:10376000012004F0C3FC412004F071FD0028FAD0D0
:103770004FF4807004F005FD012004F015FD05F004
:103780003EF93F20069040F2FF1007900020059080
:1037900005A805F0EBF80020029002A905F050F909
:1037A00000208DF8070001208DF804008DF8050039
:1037B0008DF8060001A9002005F0BBF94FF4800048
:1037C00005F05AFB4FF48000039000208DF81000A4
:1037D00008208DF8110001208DF8120003A805F0D3
:1037E00009FB03208DF800000D208DF8010000205A
:1037F0008DF8020001208DF8030000A805F049FBB8
:10380000032005F00AFA4FF4804005F0C0FA4FF4A7
:10381000800005F031FB01214FF4804005F07DFA76
:10382000012009B030BD30B585B00121084604F053
:10383000C1FC01214FF4804004F0D2FC00208DF83F
:1038400010008DF8130001200390DFF8485703A9FA
:10385000284604F0A7FD4FF40064039403A928460A
:1038600004F0A0FD0420039003A9284604F09AFD6B
:103870000021084605F046FB0B21002005F042FB25
:103880000221002005F03EFB00208DF808000120F9
:103890008DF80A0001900C208DF8090001A805F0B0
:1038A000A9FA01940C208DF8090001A805F0A2FAEC
:1038B000204605F0E1FA042001900C208DF8090063
:1038C00001A805F097FA042005F0D6FA28208DF813
:1038D00000000F208DF8010000208DF8020001206B
:1038E0008DF8030000A805F0D4FA05B030BD30B55E
:1038F0008DB0044601214FF4807004F071FC00A8E3
:1039000004F08AFD0A20009003208DF804000020B6
:103910008DF8070000A9DFF87C0604F043FD05F0F0
:1039200005FB02A805F047FB4FF48030039002A886
:1039300005F033FB06A805F026FBDFF8705B06A94F
:10394000284605F000FB072301222146284605F002
:1039500043FB0121284605F084FB0121284605F0A0
:1039600030FB0DB030BD38B5DFF8404B204605F0D8
:1039700073FB4FF47A750221204605F089FB00287D
:1039800003D12846451E0128F5DA2046BDE832401D
:1039900005F072BB80B50021DFF8100B05F011FBBC
:1039A00000214FF48070BDE8044004F019BC000011
:1039B00038B5040039D0012004F0CEFF002005F016
:1039C00046F94FF40055042005F0C2F9012804D14E
:1039D0002846451E80B20028F5D100EE104AB8EE08
:1039E000400ADFED780A80EE800AF0EE000A20EE51
:1039F000200ADFED750A80EE800ABDEEC00A10EEE7
:103A0000100A401E80B205F018F94FF4804005F00E
:103A1000BEF94FF4800005F02FFA012005F017F9E8
:103A2000DFF8800B0121416031BD012004F094FFDB
:103A30000020BDE8324005F00AB9000030B401466C
:103A400001200023DFF8682A1C469460946814F073
:103A50000C0FFBD10C460B2C55D8DFE804F020549A
:103A6000545406192031383F464D946844F0800480
:103A70009460DFF8404A4FF4C0652560146824F074
:103A800080741460DFF8B04ADFF82C5A25603BE000
:103A90000346DFF8A44ADFF8A45A256034E09468AE
:103AA0009460DFF8104A4FF4C0652560146824F074
:103AB00080741460DFF8804ADFF8845A256023E0C0
:103AC0000223DFF8744ADFF87C5A25601CE00323E8
:103AD000DFF8644ADFF8705A256015E00423DFF848
:103AE000584ADFF8C45A25600EE00523DFF8484A3B
:103AF000DFF8B85A256007E00623DFF83C4ADFF814
:103B0000B05A256000E01846002B4AD003EBC303EF
:103B10000FF2B8041B1994689460146824F0807440
:103B20001460146824F0806414609C781D8844EA52
:103B30008514DD786D086D1E44EA05441D7944EA5C
:103B400005645460DC881D7A2D0745EA8414DFF88B
:103B5000C05A2C60146844F0807414601468A40186
:103B6000FCD55B7943F4C063DFF848492360936870
:103B7000936093689360052904D1916841F09001A6
:103B8000916005E00A2903D1916841F48051916068
:103B9000916841F002019160916801F00C010829DF
:103BA000FAD1DFF894190968DFF8682A914207D240
:103BB000DFF8F41A0A6822F4404242F480420A60B4
:103BC00030BC704700007A44000000472001100418
:103BD0000F03020103F00010060F01020103C000F1
:103BE00010080F01020103C00010060F01020103BB
:103BF000F00010060F01020103C80010040F0202BA
:103C00000103A80010020F030201030016E70028B9
:103C100000E0401EFDD170477CB50726DFF85C153B
:103C200088426BD101208DF804008DF805008DF8D5
:103C3000060000208DF8070040200090DFF8885A29
:103C400000A9284604F0AEFB8020009000A9284679
:103C500004F0A8FB402128464183C0460F20FFF70F
:103C6000D6FF402128460183C0460F20FFF7CFFF33
:103C70003046461E80B20028ECD18020009000A97A
:103C8000284604F08FFB402128464183C04605208A
:103C9000FFF7BDFF802128460183C0460520FFF7BE
:103CA000B6FF402128460183C0460A20FFF7AFFF38
:103CB000402128464183C0460520FFF7A8FF802108
:103CC00028464183C0460520FFF7A1FF02208DF85A
:103CD000040001208DF805008DF8060000208DF805
:103CE00007004020009000A9284604F05BFB8020DC
:103CF000009000A9284604F055FB73BDDFF884143A
:103D000088426AD101208DF804008DF805008DF8F5
:103D1000060000208DF807004FF480640094DFF85F
:103D2000A85900A9284604F03DFB0820009000A9EE
:103D3000284604F037FB214628464183C0460A2026
:103D4000FFF765FF214628460183C0460A20FFF79A
:103D50005EFF3046461E80B20028ECD1082000905D
:103D600000A9284604F01EFB214628464183C04690
:103D70000520FFF74CFF082128460183C046052097
:103D8000FFF745FF214628460183C0460A20FFF77A
:103D90003EFF214628464183C0460520FFF737FFF6
:103DA000082128464183C0460520FFF730FF022046
:103DB0008DF8040001208DF805008DF80600002024
:103DC0008DF80700009400A9284604F0EBFA0820BB
:103DD000009000A9284604F0E5FA73BD10B5DFF89D
:103DE000EC480121206804F00AFC206804F03CFB48
:103DF0002068FFF76DFB05E02068FFF70DFF2068E6
:103E0000FFF766FB4FF40031206804F003FC002844
:103E1000F2D110BD30B40022838A008BDFF8AC48A9
:103E2000656843EA00400840000255EA10206060DF
:103E30000840884200D10122104630BC70472DE96D
:103E4000F84F04460D4616464FF420491F78DFF818
:103E50007C884FF40031D8F8000004F0DBFB002828
:103E600008D04846A0F101090028F2D1FFF7B6FFBB
:103E700000208CE0D8F8000001884FF6FF52114076
:103E800001800121D8F8000004F08CFB4FF4805A27
:103E9000D1460020C8F80400D8F800B0DFF8301888
:103EA0005846FFF7B7FF002805D14846A0F10109A1
:103EB0000028F1D163E0D14600222146584604F0A3
:103EC00089FB0020C8F80400D8F80040DFF8041887
:103ED0002046FFF79FFF002805D14846A0F10109C1
:103EE0000028F1D14BE03146C9B220460182C046DC
:103EF000D1460020C8F80400D8F80040DFF8D817F1
:103F00002046FFF787FF002805D14846A0F10109A8
:103F10000028F1D133E0012F15D129782046018204
:103F2000C046D1460020C8F80400DFF8B017D8F822
:103F30000000FFF76FFF002823D14846A0F10109D8
:103F40000028F2D11BE03846471EC0B2002818D026
:103F500015F8011BD8F800000182C046D1460020A8
:103F6000C8F80400DFF87417D8F80000FFF752FF14
:103F70000028E8D14846A0F101090028F2D100202C
:103F800005E00121D8F8000004F018FB0120BDE88D
:103F9000F28F000000000240000402402DE9F54FBE
:103FA00081B00D461E464FF420483778DFF81C4795
:103FB0004FF40031206804F02DFB002808D0404663
:103FC000A0F101080028F3D1FFF708FF0020D3E09B
:103FD000206801884FF6FF521140018001212068BE
:103FE00004F0E0FA4FF48059C84600206060DFF822
:103FF000E0A6D4F800B051465846FFF70BFF002862
:1040000005D14046A0F101080028F2D191E000223C
:104010009DF80410584604F0DDFAC84600206060A0
:10402000D4F800B0DFF8AC165846FFF7F3FE0028CE
:1040300005D14046A0F101080028F1D179E0BDF892
:104040000810C9B258460182C046C846DFF890162B
:10405000206804F0DFFA002805D14046A0F10108ED
:104060000028F3D165E00121206804F09BFAC846DE
:1040700000206060D4F800B051465846FFF7CAFEF1
:10408000002805D14046A0F101080028F2D150E0F7
:1040900001229DF80410584604F09CFA022FC846ED
:1040A00039D2DFF84016206804F0B4FA002805D1B0
:1040B0004046A0F101080028F3D13AE00021206831
:1040C00004F091FA2068018B012104F077FAC846C8
:1040D000DFF81416206804F09DFA002805D1404648
:1040E000A0F101080028F3D123E02068008AC0B2C3
:1040F00028703078401E3070C846206801888905D5
:1041000005D54046A0F101080028F6D111E00121B3
:1041100004F069FA2BE000206060DFF8D015206819
:10412000FFF778FE002806D14046A0F101080028DC
:10413000F3D1002020E0012616E0012F0CD1012E42
:104140000AD100263146206804F04DFA2068818AA1
:10415000018B012104F032FA2068818A490603D5D7
:10416000008A05F8010B7F1EFFB2002FE5D1012167
:10417000206804F038FA0120BDE8FE8F00540040AA
:10418000801A06000058004000300140042601203B
:104190008864024010640240DFF854050168082971
:1041A00033D1DFF80C130A6842F080720A6042686B
:1041B000B2F1806F03D10A6842F080620A600A6837
:1041C0009201FCD58A6842F002028A608A6802F095
:1041D0000C02082AFAD14268B2F1806F02D10A6853
:1041E0001201FCD5DFF850130968DFF8282491424A
:1041F00007D2DFF8B4140A6822F4404242F4804245
:104200000A6000210160416070474168B1F1806F30
:1042100009D1A7490A6842F080620A600A6812015F
:10422000FCD5002141607047DFF8C804016841F007
:1042300080510160DFF8700401688908890041F04D
:1042400001010160DFF8B0040FF20901016070475D
:104250000C30014038B5DFF8A444208840F0040059
:104260002080FEF71EF8807A012803D1012004F097
:1042700076FB02E0002004F072FBDFF8845480211A
:10428000DFF8800404F04CFA002818D172B6884890
:10429000DFF85C14826802F00C020A60006800F02B
:1042A00080604860286840F00400286030BF62B633
:1042B000286820F004002860FFF76EFF0CE060889B
:1042C00040F004006080286820F00400286030BFBF
:1042D000286840F004002860608840F00400608096
:1042E00031BDDFF81404006800470000DFF818143F
:1042F000012806D010D3032809D005D3042809D0FB
:104300000AE0DFF8C41307E0DFF8001404E0DFF888
:10431000001401E0DFF8FC130846704710B50C46A6
:10432000FFF7E4FF214689B2BDE8104004F084B8ED
:1043300010B50C46FFF7DAFF214689B2BDE8104000
:1043400004F07CB8E0B500238DF8083001238DF827
:104350000A30002A03D10C228DF8092002E008223D
:104360008DF8092004283CD8DFE800F0030D19225D
:1043700022004FF40060019028208DF800000F20EB
:104380008DF801001CE01846019010208DF80900FE
:1043900006208DF800000E208DF8010010E00220AC
:1043A000019007208DF800000F208DF8010007E034
:1043B0000420019008208DF800000F208DF80100E6
:1043C00000208DF80200012903D118468DF8030062
:1043D00001E08DF8030001A804F00CFD00A804F032
:1043E00058FD07BD4FF40061C74804F01EB810B572
:1043F000044601214FF4802003F0DCFE214610200A
:1044000004F04DFC00214FF48020BDE8104003F083
:10441000D1BE10B501214FF4802003F0CBFE102057
:1044200004F04AFC044600214FF4802003F0C2FE51
:104430007B2003F00CFF002802D09CA0FDF7B2FF08
:104440007A2003F004FF002802D099A0FDF7AAFF0C
:10445000792003F0FCFE002802D096A0FDF7A2FF11
:104460007C2003F0F4FE002802D093A0FDF79AFF11
:104470007D2003F0ECFE002802D090A0FDF792FF13
:104480007E2003F0E4FE002802D08DA0FDF78AFF15
:104490007F2003F0DCFE002802D08AA0FDF782FF17
:1044A00003F0EBFE2046C0B210BD0000002001402A
:1044B00000380240003C024000127A003EB50C4633
:1044C00015460422014602A800F0EEF90422214616
:1044D00001A800F0E9F90422294600A800F0E4F957
:1044E00002A9002004F0ACFA01A9002004F021FB8D
:1044F00004F01AFB0446884A002300981946101A53
:1045000063EB0101490241EAD051400204F0EAFDA7
:104510000090844205D2011B4FF0004004F0D9FB0B
:1045200037BDA04207D2C4F50070009909184FF0BA
:10453000004004F0CEFB37BDD8790020809698006B
:104540000024F40000366E010048E8012DE97043B4
:1045500084B004460D46164602A9002004F0BFFAB6
:1045600001A9002004F035FB04F0DEFA00906A4A4D
:10457000A2FB00894FEA582848EAC958A2EB080074
:104580000090042202A9204600F08EF9042201A91D
:10459000284600F089F9042200A9304600F084F989
:1045A000BDE87F83342A0120005A620280F0FA02BB
:1045B00000BD0105F0B4049C059D8E1E012E01DA9C
:1045C0000C36401E3C216427B0FBF7F7C7EB900781
:1045D0004FF4C87CB0FBFCFC674440F26F1C0CFB42
:1045E00006F64FF00C0CB6FBFCF6F619921940F2E9
:1045F0006D1606FB0020494A101800EB400203EB41
:10460000C20001FB004001FB0050F0BC70470000FD
:1046100084380240018793031CB50C460168019160
:10462000416800918368C2680169491C406900F2D1
:104630006C70FFF7BFFF2060002016BD10B58EB074
:1046400037480068C405E40D01A9002004F047FACA
:1046500000A9002004F0BDFA9DF8040006909DF822
:10466000050005909DF8060004909DF80100401E8D
:1046700008909DF8020007909DF8030064300990AF
:1046800002A904A8FFF7C8FF4FF47A7010FB04F0EA
:10469000400AC0F57A700390029A4FF47A73C117FA
:1046A000E3FB02010EB010BD00700040504F5200FD
:1046B00050494E00424F520053465400495744005F
:1046C000575744004C505700000402402C7A0020F9
:1046D000010003008200070080000700840007003B
:1046E000040000100200001040000010020003004F
:1046F0003C2A012040380240342A012018000240A0
:1047000010ED00E0003001400000024000080240CF
:10471000000C02400010024000CA9A3B7505F5FFEC
:1047200028280040002204F055BD000008B584B0E0
:104730000023029311B90093019302E00090481EF8
:10474000019004AB00A907487844183004F05CFDE0
:10475000009909B100220A70002858BF029805B0DC
:1047600000BD00BFA3E6FFFF00F10103810704D0F5
:1047700010F8011B89B18107FAD10268B2F1013149
:10478000914311F0803F04BF50F8042FF6E710F872
:10479000011B11B110F8011BFBE7C01A70470000A4
:1047A00000B585B002460FF2140100A805F094FB95
:1047B00000A800F099FB05B000BD00004F4525643E
:1047C0000000000030488168002904BF08B008E0FC
:1047D000EFF30982A2F12802036882E8F84F8368A8
:1047E0005A6000F04DFD816859B14A6892E8F84F6F
:1047F000036002F1280282F3098813F47F4F36D058
:104800007047224822490968401A80F308884FF00F
:104810008071C1611F4981617FF0060E704701BC44
:104820002046DFF874E000BDFEE71C480068184928
:104830000968401A203820F0070080F308884FF0FC
:10484000000181F3118862B600F00DF8FEE74FF029
:10485000000181F311881249124A0A604FF0800169
:1048600081F3118870470E490E4A0A6070474FF075
:10487000000181F31188704700BF4FF0800181F380
:104880001188704700BF000024790020E01F00203D
:10489000001D030825A200082948000800000008A0
:1048A00004ED00E00000001010B50446FEF7BEF86D
:1048B000204610BDEFF303807047BFF34F8FDFF842
:1048C0006C06016801F4E061DFF8642611430160C1
:1048D000BFF34F8FFEE770B582B006460C46204608
:1048E000FFF742FF0546202D05D10422314600A8DE
:1048F000FFF7DAFF06E0102D16D10222314600A89C
:10490000FFF7D2FF002000E0401CA8420EDA015D54
:104910007829F9D0009A2B465B1E1B1ADA4002F068
:10492000010230398A42EFD0002076BD012076BDE9
:10493000DFF80016016006207047A0F10060DFF884
:10494000F81588428041C00F7047F8B504460D46FF
:10495000002000902068FFF7F0FF00281AD000A880
:10496000FFF7E6FF0646002700E07F1CB74211D2A2
:10497000009850F8371000EBC700406840422268AA
:10498000520810EB4200FFF7A6FF0028EDD02F6081
:104990000120F2BD0020F2BDF8B50C46DFF89C15F1
:1049A0000A6D4B6D002559082E465F1B062F11D34B
:1049B000482707FB01273F6C874200D20D46B842CB
:1049C00000D20B46E918490837467E1C1F2FECD34E
:1049D00000E06D1C9D4211D2482707FB05210E6C9B
:1049E000B042F6D34E6C8642F3D34022204605F007
:1049F0008DFA002084F840000120F2BD40220FF221
:104A00000861204605F082FA0020F2BDF0B591B0B1
:104A1000044600250EE032590FF2F85100A805F0C7
:104A20005BFA00A8FFF7A0FE024600A9381D05F0BA
:104A30006DFA6D1C05EBC500C600305900280BD07F
:104A4000371900A9FFF7A8FF0028E4D0402200A9E9
:104A5000381D05F05BFAECE711B0F0BDF8B507467C
:104A60000C461546002630460090002F1ED0002C24
:104A700009D1F2BD06EBC600C00057F8041B490877
:104A800049004151761C0C2E0FD200A93846FFF781
:104A90005CFF002807D13868FFF74FFF002802D1DC
:104AA0003F1DBC42F1D2BC42E4D23046F2BD70B5EB
:104AB000DFF88C140A460B68D21A1368DFF88444B6
:104AC000A34201D0002070BDDFF87044121D2265A2
:104AD0000968091F4822B1FBF2F1616510F1030F6B
:104AE00002D010F1130F0AD1DFF85C54A86805F06A
:104AF00043FA0646A86805F04BFA811905E005F06F
:104B000055FA054605F054FA4119DFF84054A069FA
:104B1000286005F14802A06AFFF7A0FF2846FFF7CA
:104B200075FF012070BD0EB430B5CCB0044600A8AE
:104B30004FF49671FFF7F6FD00254FAB22464FF478
:104B4000967100A8FFF7F2FD00A8FFF70DFE0446DE
:104B500009E0DFF8E813C86D421CCA6500A9695C6A
:104B600005F08EFA6D1CA542F3D34CB030BC5DF855
:104B700010FB38B50024DFF8C453E8650FF29C4001
:104B8000FFF7D1FFDFF8C80301680FF2B440FFF769
:104B9000CAFFA86C0090AB6B6A6B296B0FF2B84030
:104BA000FFF7C1FFE96C0FF2E840FFF7BCFF6A694D
:104BB000A9690FF2F040FFF7B6FF0FF20050FFF7C0
:104BC000B2FF06E01018021D0FF20850FFF7ABFF0E
:104BD000641C04EBC400C200DC4811580029F1D168
:104BE0000FF2FC40FFF79FFFA86D441E002505E073
:104BF0000918BCA0FFF797FF641E6D1C3C2D09D25D
:104C0000002C00D53B24322000FB04F1D1480A5C83
:104C1000002AEDD131BDD048D0490A6802604A6807
:104C200042608A688260CA68C2600A6902614A6931
:104C300042610A7E8261097F8161C9490A78826185
:104C40004A6842628A688262CA68C2620A6902630A
:104C50004A6942638A698263CA69C2638A6EC0F81C
:104C60008820C04A9369C0F89830D368C0F88C3067
:104C70001369C0F890305369C0F894300B6FC0F8D6
:104C80009C304B6FC0F8A0308B6FC0F8A430C96F58
:104C9000C0F8A810B4490968C0F8AC10B3490B6853
:104CA000C0F8CC304B68C0F8D0308B68C0F8D43036
:104CB000CB68C0F8D8300969C0F8DC105168C0F87A
:104CC000E8101168C0F8E410704770B506460C464D
:104CD0009A4D6FF01E01401A14D0083812D0001FF0
:104CE00005D0001F0ED008380CD0001F10D104F1E1
:104CF00020002862EFF3148040F00200E862286A86
:104D0000A86205E004F120002862EFF31480E86255
:104D1000EFF308806862EFF305802863EFF300800B
:104D20006863FFF7C7FDA863EFF31080E863EFF354
:104D300011802864EFF313806864F1EE100AA86410
:104D4000EE64002004E054F8201045F82010401CC8
:104D50000828F8D370BD70B5784CA16D3C2901D3FB
:104D60000021A165A56D32217A4A01FB05260A467C
:104D700001463046FFF798FD002086F83100681C98
:104D8000A06570BD70B5014674462046FFF79DFFD3
:104D9000FFF741FF2046FFF78AFE00F09AF800284F
:104DA00032D100F034F805F00BF9F32005F082F968
:104DB0006F484FF00054002505E02178641C05F091
:104DC0005FF930466D1C461CB5F5C03FF5D3532145
:104DD00005F056F95221304605F052F9741C412174
:104DE000204605F04DF9641C4D21204605F048F998
:104DF0006048C046C04604F10D00FFF7BAFE05F05A
:104E0000E8F85D4800F01FF8BDE8704055E510B5C2
:104E100005F0D6F8F32005F04DF9584C3820206005
:104E200002E02068083020602068402807D2002176
:104E300005F0D5F80928F4D0FFF73FFDFCE7BDE801
:104E4000104005F0C6B838B5044605F0B9F8F320AF
:104E500005F030F93E480168204605F0F5F8241DBC
:104E6000FF21204605F00CF9641C424D697920466B
:104E700005F006F9641CE978204605F001F9641C88
:104E80002979204605F0FCF8641C2978204605F0B5
:104E9000F7F8641C6978204605F0F2F8641CA978DC
:104EA000204605F0EDF8F521601C05F0E9F8BDE8B5
:104EB000314005F08EB880B505F082F8F32005F09A
:104EC000F9F8AA212E4805F0DBF8BDE8014005F00D
:104ED00080B800202A490978F52900D101207047BF
:104EE0000000000025730A0010B50446FFF73CFCE3
:104EF000C0B2142800D31320024621462148FFF7F0
:104F0000D3FC4FF0AC30007810BD80B500F04BF80A
:104F1000BDE80140D1E480B5FFF7CDFF4FF4C832C2
:104F200013490020BDE8084001F08EBF0CED00E001
:104F30000400FA05C478002001F80200181A0120C4
:104F4000FC4F0508FECAFECA24790020CCE70020E9
:104F5000447A0020F0AF0020AC08012000ED00E012
:104F600020ED00E004E000E0A0ED00E034EF00E020
:104F7000000006082C2A0120F4FF0708CC2A012093
:104F8000FFFF0708E027012010B500F01BF80FF223
:104F900070142046FFF7E8FB024621460020BDE8DA
:104FA000104001F051BF80B501214FF4802003F083
:104FB00001F9012003F0D0FC94210F20BDE804404A
:104FC00003F06DBE80B501214FF4802003F0F2F8AC
:104FD000012003F0C1FC00210F20BDE8044003F0D4
:104FE0005EBE10B5002401214FF4802003F0E2F8EA
:104FF000012003F0B1FC0F2003F05EFE942800D1E5
:105000000124204610BD00004E6F2053796D626F61
:105010006C00000030782530387800000A0A0A0A4F
:105020003D3D2043726173682044756D7020496E68
:10503000666F726D6174696F6E203D3D0A000000FD
:105040004669726D776172652056657273696F6E1D
:10505000203A2025640A00000A49505352203D207E
:10506000307825782C2041505352203D203078252F
:10507000782C2078505352203D20307825782C20F1
:105080005046534352203D20307825780A000000D6
:105090000A6661756C74206D6F6465203D20307800
:1050A000257800000A5043203D20307825782C20B8
:1050B0004C52203D20307825780A00000A3C43728B
:1050C0006173682043616C6C20537461636B3E0AAA
:1050D0000000000030782578202025730A000000A9
:1050E0000A0A3D3D20526563656E74204C6F67204F
:1050F0004D65737361676573203D3D0A00000000D4
:10510000534E414D590000000000000038B5FFF734
:10511000B4FBDFF830068468DFF82806002101714F
:10512000FFF7A5FB002C2CD02068002829D0607C3C
:105130002168497CC0B2814223D1256800E00D007E
:105140002968002903D04A7CC0B28242F7D0FFF719
:1051500094FBDFF8F0050069A04203D1DFF8E40515
:1051600021680161E06921680160C861E561296821
:105170002160002900D0CC612C6095F8410085F8B1
:105180004000FFF774FB31BD10B5FFF776FBDFF889
:10519000B8050468DFF8AC05006A201A012832DA85
:1051A000DFF8A005046A04E0DFF898050462FFF761
:1051B0005EFBDFF898050078C00722D5FFF75DFB9E
:1051C000DFF8880500788007EED5DFF880050078E5
:1051D00010F0FD00DFF874150870FFF748FBDFF8EA
:1051E0006405006A8442FAD0DFF858050462DFF8EB
:1051F00058050068401CDFF850150860DFF84415BA
:105200004862FFF73AFB10BD38B504000020A071DA
:10521000206A10F57A606062E069002802D0200000
:10522000E1698847FFF723FBE56809E0E868616A00
:10523000401A002801D5E8686062FFF718FB2D6866
:10524000002D1AD0FFF719FB2069002804D0687CD4
:105250002169497C884212D3287C4007EDD5E86853
:10526000216A401A0128E1DA280000F09EF9FFF7D0
:1052700004FB287C0028D9D101E0FFF7FEFA31BDFC
:1052800070B50400002060700120207004F08EFED4
:105290000078C0B2CD2802D07D20FFF781FAA06847
:1052A00000280CD0A068406C002808D0A068406C92
:1052B00001680800002802D0A0684068884794F878
:1052C000290000280BD0A06894F8281080F840101E
:1052D000DFF870040079002801D0FFF717FFDFF82E
:1052E00070040078002823D0DFF868040068DFF835
:1052F0005414096A401A002804D5DFF85404002128
:10530000017015E0FFF7B9FA04F099FF0500FFF707
:10531000AEFAA068002808D0A068406B2818DFF813
:1053200038140968401AA1684863DFF82C04056046
:10533000A068002808D0A068007C002804D1A068DC
:10534000006B401CA1680863206900282BD003E093
:1053500030682061FFF78BFAFFF78FFA2669002E7D
:1053600027D0357CEDB2002D23D0680710D5F0682A
:10537000216A411A012906DA300000F016F9307C62
:10538000002805D10FE0616A411A002900D560624A
:10539000EDB215F0FB001028DAD1B06880684068E3
:1053A000007C0028D4D1FFF768FA02E02000FFF764
:1053B0002BFFA0790028F9D1DFF890030078C0070F
:1053C00001D5FFF7E1FE002060712069002839D087
:1053D0002069007C002805D02069806880684068CA
:1053E000A06001E02069A060A06890F84C006428EB
:1053F00002D08020FFF7D4F9A068806A0078CD2819
:1054000002D07820FFF7CCF9A068406C002808D0C3
:10541000A068406C41680800002802D0A06840687D
:105420008847A06890F8400084F8280084F8290094
:10543000DFF810038068C06A401CDFF80813896831
:10544000C8620BE0002084F82900002084F82800BE
:105450000020A06000202070FFF709FA200070BD36
:1054600080B504F019FFDFF8F4120978002806D09F
:10547000022810D009D3042815D010D314E0002935
:1054800002D0A320FFF78CF911E0002902D1A4205B
:10549000FFF786F90BE0A620FFF782F907E0A720C7
:1054A000FFF77EF903E002E0A820FFF779F901BDDC
:1054B00010B504F0F1FE0400DFF8A0020078002827
:1054C00002D0A020FFF76CF9002C05D0022C08D0E8
:1054D00003D3032C09D00CE00EE0A420FFF760F901
:1054E0000AE0A620FFF75CF906E0A720FFF758F9CD
:1054F00002E0A820FFF754F910BD80B504F0CCFEFF
:10550000002805D0022808D006D3032809D00CE0D3
:10551000A320FFF745F90BE00AE0A620FFF740F9CA
:1055200006E0A720FFF73CF902E0A820FFF738F9D2
:1055300001BD80B5DFF80C020078002802D1972069
:10554000FFF72EF9DFF8FC010078401EDFF8F411B8
:105550000870C0B2002827D1DFF8E80140680028B1
:1055600022D0FFF78AF9DFF8DC01406800280BD071
:10557000DFF8D00101210170DFF8C801FFF767F9FA
:10558000DFF8C00100210170DFF8B8014078F02198
:10559000084202D09920FFF703F9DFF8A80140780C
:1055A000002801D1FFF763F901BD10B5816800291A
:1055B0000CD0DFF89011096AC16081680A684968F7
:1055C000002A00D051600A6000218160017C11F046
:1055D00003010174C9B2002945D1DFF868110969D6
:1055E000002929D1DFF85C110861DFF85801007843
:1055F00000280CD1DFF84C0101210170DFF84401D3
:10560000FFF725F9DFF83C010021017003E0DFF826
:10561000340101214171DFF82C014078F02108426A
:1056200002D09920FFF7BCF8DFF818014078002875
:1056300001D1FFF71CF916E0427C4B7CD2B29342B9
:10564000D0D38142D1D04B7CD2B29A420BD103004D
:10565000FFE71B68002BDED05C7CD2B2A242DAD11D
:105660008B42F6D1BEE710BD10B50400627C354810
:105670000078401C33490870394800E00800016890
:10568000002903D04B7CD2B29A42F7D32160E0616B
:10569000046000290AD0CC61487CD2B2904202D189
:1056A00094F8410000E0002084F84000207C0028AD
:1056B00012D1FFF7E2F82000FFF777FF214840788A
:1056C000F021084202D09920FFF76AF81D4840787F
:1056D000002801D1FFF7CBF8FFF72BFF10BD10B565
:1056E0001848047817480078401C16490870154877
:1056F000FFF7ADF81348047012484078F0210842D3
:1057000002D09920FFF74CF80E484078002801D1CC
:10571000FFF7ADF810BD10B504F0C4FD0948012134
:10572000017004F043FC04006846C046021B203AA6
:10573000012A03DBCD212000FCF790FD094801215F
:10574000017010BD247900200C2B01205E2B01205C
:105750005F2B0120242B0120102B0120602B012026
:1057600030790020622B01205060026041600860A7
:1057700070470A68F8E74860016070470168406850
:10578000F9E7F8B50600DFF8605802D505F15400D6
:10579000F2BD05F154040020E96E00E0096805F14E
:1057A0006C02914204D00C46A2689642F6D10120C8
:1057B000002840D1686FD0F88070182004F096FD62
:1057C0000446A660002F05D0B74203D2B6FBF7F01F
:1057D000784300E03046E060002F02D0B74200D2AC
:1057E0003E46266100202075DFF800683078401CB6
:1057F00030707078F021084202D09920FEF7D0FF77
:10580000FFF73BF87078401C707005F16C01204682
:10581000FFF7AFFF7078F021084202D09920FEF721
:10582000BFFF7078401E7070C0B2002801D1FFF732
:105830001EF8FFF77EFE2046F2BD38B5044694F907
:105840001400002829D1DFF8A4572878401C2870BC
:105850006878F021084202D09920FEF7A1FFFFF7F7
:105860000CF86878401C68702046FFF787FF2046D8
:1058700004F054FD6878F021084202D09920FEF728
:105880008FFF6878401E6870C0B2002801D1FEF713
:10589000EEFFBDE83140FFF74CBE31BDF8B5044620
:1058A00008466FF00045FFF76CFF064694F90500C7
:1058B00094F90410814214D1C01C800004F016FD3C
:1058C000074694F90500012807DB82002168384665
:1058D000FEF7EAFF206804F021FD27606079C01C14
:1058E000607194F90400411C2171216841F8206025
:1058F000DFF8FC06864202D0307D401C3075002067
:1059000008E0216851F820108A68954201DB1546AD
:10591000A160401C94F904108842F2DBF1BDF8B597
:1059200004466FF00046DFF8C02602F1540502F18C
:1059300054004FF0FF33002704E0664501DB664664
:1059400075467F1C94F904C067450DDAD4F800C091
:105950005CF827E0DEF808C0002BEED58C45ECD1D2
:1059600070463B465BB2ECE7002B11D4BCF1010F53
:105970000EDB06E0216801EB8306766841F82360C0
:105980005B1C94F904104E1EB342F3DB491E2171D7
:1059900002F15401884204D0017D491E0175FFF7D0
:1059A0004CFFA560F1BD10B4C26A836B406C9C686B
:1059B000002C02D56FF0004300E01B698468002CC6
:1059C00002D56FF0004000E00069984200DD184603
:1059D000D2685143884201DB012000E0002010BC66
:1059E000704738B5DFF800164A6FD36E012490F97E
:1059F0000850AC402343D36601F51061FFF7B9FEB0
:105A0000012032BD10B5DFF8E015496FCA6E0123E1
:105A100090F90840A3409A43CA66FFF7AFFE012001
:105A200010BD01207047F8B5044615461E4604F126
:105A30002400FFF733FF06EB460004EB80072946FE
:105A400007F13000FFF72AFF97F934000090334642
:105A5000627A94F908100FF29C50FCF7A3FCF1BD98
:105A6000F8B5044615461E4604F12400FFF757FF1B
:105A700006EB460004EB8007294607F13000FFF7EC
:105A80004EFF97F9340000903346627A94F908107B
:105A90000FF27050FCF786FCF1BDC16A8A68012ADA
:105AA00009DB0969012906DA006D002801D500200B
:105AB0007047022070470020704701EB410200EB65
:105AC0008201896B8A68012A09DB0969012906DAE2
:105AD000006D002801D5002070470220704700208B
